:020000040000FA
:100000000C945D000C9485000C9485000C94850084
:100010000C9485000C9485000C9485000C9485004C
:100020000C9485000C9485000C9485000C9485003C
:100030000C9485000C9485000C9485000C9485002C
:100040000C9492010C9485000C9485000C9485000E
:100050000C9485000C9485000C9485000C9485000C
:100060000C9485000C94850000000008000201003B
:100070000003040700000000000000000000000072
:10008000250028002B0000000000240027002A0083
:10009000040404040404040402020202020203032E
:1000A0000303030301020408102040800102040836
:1000B0001020010204081020980411241FBECFEF65
:1000C000D8E0DEBFCDBF11E0A0E0B1E0EAE1FAE0A8
:1000D00002C005900D92AE35B107D9F721E0AEE52B
:1000E000B1E001C01D92A03AB207E1F710E0CDE502
:1000F000D0E004C02197FE010E940505CC35D10750
:10010000C9F70E94DC010C940B050C94000090E0F0
:10011000FC01EC55FF4F249180579F4FFC018491C7
:10012000882399F090E0880F991FFC01EA57FF4F50
:10013000A591B491FC01E458FF4F859194918FB73C
:10014000F894EC91E22BEC938FBF089590E0FC01C2
:10015000E859FF4F2491FC01EC55FF4F3491FC010D
:10016000E057FF4FE491EE23C9F0222339F023300A
:1001700001F1A8F4213019F1223029F1F0E0EE0F5D
:10018000FF1FE458FF4FA591B4918FB7F894EC91FD
:10019000611126C030953E233C938FBF08952730D0
:1001A000A9F02830C9F0243049F7809180008F7D74
:1001B00003C0809180008F7780938000DFCF84B56B
:1001C0008F7784BDDBCF84B58F7DFBCF8091B0006E
:1001D0008F778093B000D2CF8091B0008F7DF9CF20
:1001E0003E2BDACFCF93DF93C82FD0E080918D01E3
:1001F000D81758F4ED2FF0E0EB58FE4F60917801DE
:1002000087850E94A600DF5FF1CFEC2FF0E0EB586E
:10021000FE4F609176018781DF91CF910C94A6000B
:10022000CF93DF93C82FD0E080918C01D81758F47A
:10023000ED2FF0E0EB58FE4F6091760187810E9430
:10024000A600DF5FF1CFEC2FF0E0EB58FE4F60919E
:1002500078018785DF91CF910C94A6001F93CF93EF
:10026000DF93C82FD0E0CB58DE4F609175018F81AE
:100270000E94A60010E06A9680918D011817A8F4DC
:10028000E12FF0E0888190E0012E02C095958795DE
:100290000A94E2F780FF07C0EB58FE4F60917701A8
:1002A00087850E94A6001F5FE7CFDF91CF911F9146
:1002B00008950F931F93CF93C82FE82FF0E0EB58CA
:1002C000FE4F6091770187850E94A60001E010E053
:1002D00002C0000F111FCA95E2F7C0E080918C01A7
:1002E000C81788F4EC2FF0E0EB58FE4F828D90E0B9
:1002F00080239123892B29F06091750187810E94C9
:10030000A600CF5FEBCFCF911F910F910895823060
:10031000910538F0880F991F880F991F059701974D
:10032000F1F708951F920F920FB60F9211242F9399
:100330003F938F939F93AF93BF938091710190915F
:100340007201A0917301B09174013091700123E0AA
:10035000230F2D3758F50196A11DB11D2093700173
:100360008093710190937201A0937301B093740113
:1003700080916C0190916D01A0916E01B0916F011F
:100380000196A11DB11D80936C0190936D01A09306
:100390006E01B0936F01BF91AF919F918F913F918B
:1003A0002F910F900FBE0F901F90189526E8230FE6
:1003B0000296A11DB11DD2CFCF93DF93CDB7DEB78B
:1003C00060970FB6F894DEBF0FBECDBF789484B5AA
:1003D000826084BD84B5816084BD85B5826085BD41
:1003E00085B5816085BD80916E00816080936E00CF
:1003F00010928100809181008260809381008091C1
:100400008100816080938100809180008160809371
:1004100080008091B10084608093B1008091B00031
:1004200081608093B00080917A00846080937A002C
:1004300080917A00826080937A0080917A00816056
:1004400080937A0080917A00806880937A0010927D
:10045000C1008091000190910101A0910201B09131
:10046000030189879A87AB87BC8788E0E4E0F1E0E5
:100470008E010F5F1F4FD80101900D928A95E1F711
:100480001092790110927A0110927B0184E080939E
:100490008C0188E080938D0181E08093750110923A
:1004A00077011092760180937801F801A4E8B1E019
:1004B000CE01099621912D93E817F907D9F789857F
:1004C00080937C018A8580937D018B8580937E015A
:1004D0008C8580937F01F12C80918C01F81690F42B
:1004E0008F2D90E09C012B583E4F6901F9018781C7
:1004F0000E94870060917601F60187810E94A60024
:10050000F394EACFF12C80918D01F81650F0909180
:100510008C01EFE8F1E080E09817A9F011928F5F6D
:10052000FBCF8F2D90E09C012B583E4F6901F901C4
:1005300087850E94870060917801F60187850E9477
:10054000A600F394E0CF80E00E94100180E00E94BA
:10055000F20088E097E090939C0180939B011092B9
:100560009E0110929D0110929F018824839475E250
:10057000672E80916401811115C02FB7F894809186
:10058000710190917201A0917301B09174012FBF1C
:100590008093600190936101A0936201B093630125
:1005A000809264018FB7F89440917101509172016B
:1005B00060917301709174018FBF8091600190917F
:1005C0006101A0916201B0916301481B590B6A0B54
:1005D0007B0B443651056105710508F4D5C08C5973
:1005E0009F4FAF4FBF4F8093600190936101A093E5
:1005F0006201B093630180915E0190915F01019669
:100600008031F7E29F0709F444C090935F01809323
:100610005E01C0905E01D0905F010D2C000CEE08D1
:10062000FF0890908C01A92CB12CC501880F991F4F
:10063000880F991FFC01EB5CFE4F40815181628164
:100640007381C416D506E606F70644F1F8018E2F2D
:10065000801B891508F47AC032E0A31AB108A5E717
:10066000B1E0980190E080E0891508F08DC0F901B3
:1006700041919F01E42FF0E0E45FFE4F4081A81616
:10068000B90609F47FC05A964C935A970196119671
:10069000EBCF10925F0110925E01BBCF8F5C9E4F3B
:1006A000FC0180819181A281B38121E030E040E0B2
:1006B00050E0281B390B4A0B5B0BDA01C901C81645
:1006C000D906EA06FB0614F2712CF7FE0BC069820C
:1006D000F094E094D094C094C11CD11CE11CF11C96
:1006E00077247394272D30E0C501821B930B880F6C
:1006F000991F880F991FFC01EB5CFE4FFE87ED8769
:10070000A801420F531F588B4F87791410F5ED85C0
:10071000FE855290429032902290FE87ED87C7016D
:10072000B601A20191010E94AA04EF85F8892193E4
:10073000F88BEF87A22FB0E0A20191010E94C904BB
:10074000C61AD70AE80AF90A7394DFCF45E2419343
:100750007ECF80917B0181117FCF9501225031099D
:10076000E82FF0E0E217F3070CF076CFE00FF11F6F
:100770009081911104C044E240838F5FF1CF9A30A1
:10078000E0F76ACF40687FCF80917A01811196C0EF
:100790003FB7F89480916C0190916D01A0916E012A
:1007A000B0916F0126B5A89B05C02F3F19F00196A7
:1007B000A11DB11D3FBFBA2FA92F982F8827820FE7
:1007C000911DA11DB11D42E0880F991FAA1FBB1FDB
:1007D0004A95D1F720919F0140919701509198013E
:1007E0006091990170919A016C017D01C41AD50A3A
:1007F000E60AF70A40919D0150919E01211104C023
:1008000040919B0150919C01052E000C660B770BCB
:10081000C416D506E606F70664F180939701909317
:100820009801A0939901B0939A0180918E019091C3
:100830007901911126C0222391F010929F0180919D
:100840008E018F5F80938E0190918D01891710F03A
:1008500010928E0180918E010E9459010AC00E945F
:10086000100180919D0190919E01892B41F380920E
:100870009F0120E030E0232B09F47BCE0E94000092
:1008800078CE222391F010929F0180918E018F5F8C
:1008900080938E0190918C01891710F010928E0137
:1008A00080918E010E942E01E4CF0E94F20080917F
:1008B0009D0190919E01892B41F3D9CF80917901BF
:1008C000F12C81111AC080918D01F81690F68F2DB0
:1008D0000E94590180919B0190919C010E94870187
:1008E0008F2D0E94100180919D0190919E01009793
:1008F00011F00E948701F394E6CF80918C01F816E5
:1009000008F0B7CF8F2D0E942E0180919B0190910E
:100910009C010E9487018F2D0E94F20080919D0111
:1009200090919E01009711F00E948701F394E5CF0A
:10093000E5E7F1E080ED97E097A386A311A610A666
:1009400012A6178A118E12A213A214A215A2148243
:1009500015820895052E97FB1EF400940E94C10491
:1009600057FD07D00E94D40407FC03D04EF40C942A
:10097000C10450954095309521953F4F4F4F5F4FA3
:10098000089590958095709561957F4F8F4F9F4FFB
:1009900008950E94F604A59F900DB49F900DA49F0A
:1009A000800D911D11240895A1E21A2EAA1BBB1BD4
:1009B000FD010DC0AA1FBB1FEE1FFF1FA217B3072B
:1009C000E407F50720F0A21BB30BE40BF50B661F41
:1009D000771F881F991F1A9469F760957095809505
:1009E00090959B01AC01BD01CF010895A29FB0017C
:1009F000B39FC001A39F700D811D1124911DB29F53
:100A0000700D811D1124911D0895EE0FFF1F05909B
:100A1000F491E02D0994F894FFCF0A0B0C0D02031A
:100A20000405060708093F065B4F666D7D077F6F6B
:100A3000777C395E79713D76300E763800543F739D
:100A400067506D783E3E00766E5B00408063080123
:100A50000000000A00000064000000E8030000102D
:100A6000270000A086010040420F008096980000F9
:080A7000E1F50500CA9A3B0004
:107E0000112484B714BE81FFF0D085E080938100F7
:107E100082E08093C00088E18093C10086E0809377
:107E2000C20080E18093C4008EE0C9D0259A86E02C
:107E300020E33CEF91E0309385002093840096BBD3
:107E4000B09BFECF1D9AA8958150A9F7CC24DD24C4
:107E500088248394B5E0AB2EA1E19A2EF3E0BF2EE7
:107E6000A2D0813461F49FD0082FAFD0023811F036
:107E7000013811F484E001C083E08DD089C08234E0
:107E800011F484E103C0853419F485E0A6D080C0E4
:107E9000853579F488D0E82EFF2485D0082F10E0AE
:107EA000102F00270E291F29000F111F8ED06801E7
:107EB0006FC0863521F484E090D080E0DECF843638
:107EC00009F040C070D06FD0082F6DD080E0C81688
:107ED00080E7D80618F4F601B7BEE895C0E0D1E017
:107EE00062D089930C17E1F7F0E0CF16F0E7DF06D8
:107EF00018F0F601B7BEE89568D007B600FCFDCFD4
:107F0000A601A0E0B1E02C9130E011968C91119780
:107F100090E0982F8827822B932B1296FA010C0160
:107F200087BEE89511244E5F5F4FF1E0A038BF0790
:107F300051F7F601A7BEE89507B600FCFDCF97BE46
:107F4000E89526C08437B1F42ED02DD0F82E2BD052
:107F50003CD0F601EF2C8F010F5F1F4F84911BD097
:107F6000EA94F801C1F70894C11CD11CFA94CF0C13
:107F7000D11C0EC0853739F428D08EE10CD085E9AC
:107F80000AD08FE07ACF813511F488E018D01DD067
:107F900080E101D065CF982F8091C00085FFFCCF94
:107FA0009093C60008958091C00087FFFCCF809118
:107FB000C00084FD01C0A8958091C6000895E0E648
:107FC000F0E098E1908380830895EDDF803219F02E
:107FD00088E0F5DFFFCF84E1DECF1F93182FE3DFCA
:107FE0001150E9F7F2DF1F91089580E0E8DFEE27F6
:047FF000FF270994CA
:027FFE00040479
:00000001FF
