:100000000C945D000C9485000C9485000C94850084
:100010000C9485000C9485000C9485000C9485004C
:100020000C9485000C9485000C9485000C9485003C
:100030000C9485000C9485000C9485000C9485002C
:100040000C9492010C9485000C9485000C9485000E
:100050000C9485000C9485000C9485000C9485000C
:100060000C9485000C94850000000008000201003B
:100070000003040700000000000000000000000072
:10008000250028002B0000000000240027002A0083
:10009000040404040404040402020202020203032E
:1000A0000303030301020408102040800102040836
:1000B0001020010204081020B90411241FBECFEF44
:1000C000D8E0DEBFCDBF11E0A0E0B1E0ECE5FAE0A2
:1000D00002C005900D92AE35B107D9F721E0AEE52B
:1000E000B1E001C01D92A43AB207E1F710E0CDE5FE
:1000F000D0E004C02197FE010E942605CC35D1072F
:10010000C9F70E94DC010C942C050C94000090E0CF
:10011000FC01EC55FF4F249180579F4FFC018491C7
:10012000882399F090E0880F991FFC01EA57FF4F50
:10013000A591B491FC01E458FF4F859194918FB73C
:10014000F894EC91E22BEC938FBF089590E0FC01C2
:10015000E859FF4F2491FC01EC55FF4F3491FC010D
:10016000E057FF4FE491EE23C9F0222339F023300A
:1001700001F1A8F4213019F1223029F1F0E0EE0F5D
:10018000FF1FE458FF4FA591B4918FB7F894EC91FD
:10019000611126C030953E233C938FBF08952730D0
:1001A000A9F02830C9F0243049F7809180008F7D74
:1001B00003C0809180008F7780938000DFCF84B56B
:1001C0008F7784BDDBCF84B58F7DFBCF8091B0006E
:1001D0008F778093B000D2CF8091B0008F7DF9CF20
:1001E0003E2BDACFCF93DF93C82FD0E080919101DF
:1001F000D81758F4ED2FF0E0E758FE4F60917C01DE
:1002000087850E94A600DF5FF1CFEC2FF0E0E75872
:10021000FE4F60917A018781DF91CF910C94A60007
:10022000CF93DF93C82FD0E080919001D81758F476
:10023000ED2FF0E0E758FE4F60917A0187810E9430
:10024000A600DF5FF1CFEC2FF0E0E758FE4F6091A2
:100250007C018785DF91CF910C94A6001F93CF93EB
:10026000DF93C82FD0E0C758DE4F609179018F81AE
:100270000E94A60010E06A96809191011817A8F4D8
:10028000E12FF0E0888190E0012E02C095958795DE
:100290000A94E2F780FF07C0E758FE4F60917B01A8
:1002A00087850E94A6001F5FE7CFDF91CF911F9146
:1002B00008950F931F93CF93C82FE82FF0E0E758CE
:1002C000FE4F60917B0187850E94A60001E010E04F
:1002D00002C0000F111FCA95E2F7C0E080919001A3
:1002E000C81788F4EC2FF0E0E758FE4F828D90E0BD
:1002F00080239123892B29F06091790187810E94C5
:10030000A600CF5FEBCFCF911F910F910895823060
:10031000910538F0880F991F880F991F059701974D
:10032000F1F708951F920F920FB60F9211242F9399
:100330003F938F939F93AF93BF938091750190915B
:100340007601A0917701B09178013091740123E09A
:10035000230F2D3758F50196A11DB11D209374016F
:100360008093750190937601A0937701B093780103
:100370008091700190917101A0917201B09173010F
:100380000196A11DB11D8093700190937101A093FE
:100390007201B0937301BF91AF919F918F913F9183
:1003A0002F910F900FBE0F901F90189526E8230FE6
:1003B0000296A11DB11DD2CFCF93DF93CDB7DEB78B
:1003C00060970FB6F894DEBF0FBECDBF789484B5AA
:1003D000826084BD84B5816084BD85B5826085BD41
:1003E00085B5816085BD80916E00816080936E00CF
:1003F00010928100809181008260809381008091C1
:100400008100816080938100809180008160809371
:1004100080008091B10084608093B1008091B00031
:1004200081608093B00080917A00846080937A002C
:1004300080917A00826080937A0080917A00816056
:1004400080937A0080917A00806880937A0010927D
:10045000C1008091000190910101A0910201B09131
:10046000030189879A87AB87BC8788E0E4E0F1E0E5
:100470008E010F5F1F4FD80101900D928A95E1F711
:1004800081E080937D0110927E0180937F0194E052
:100490009093900198E0909391011092790180934C
:1004A0007B0180937A0110927C01F801A8E8B1E009
:1004B000CE01099621912D93E817F907D9F789857F
:1004C000809380018A85809381018B85809382014E
:1004D0008C8580938301F12C80919001F81690F423
:1004E0008F2D90E09C0127583E4F6901F9018781CB
:1004F0000E94870060917A01F60187810E94A60020
:10050000F394EACFF12C80919101F81650F090917C
:100510009001E3E9F1E080E09817A9F011928F5F74
:10052000FBCF8F2D90E09C0127583E4F6901F901C8
:1005300087850E94870060917C01F60187850E9473
:10054000A600F394E0CF80E00E94100180E00E94BA
:10055000F2008824839475E2672E809168018111EE
:1005600015C02FB7F8948091750190917601A091F4
:100570007701B09178012FBF80936401909365015A
:10058000A0936601B0936701809268018FB7F894D9
:1005900040917501509176016091770170917801D9
:1005A0008FBF8091640190916501A0916601B09127
:1005B0006701481B590B6A0B7B0B453051056105E0
:1005C000710508F402C10596A11DB11D8093640157
:1005D00090936501A0936601B093670180916201D9
:1005E0009091630101969093630180936201CC978F
:1005F00069F4809160019091610110926301109201
:100600006201019690936101809360018091600185
:1006100090916101CC9769F480915E0190915F01A6
:100620001092610110926001019690935F01809396
:100630005E0180915E0190915F01489721F41092D4
:100640005F0110925E0180915E0190915F01F4E67E
:10065000F89F6001F99FD00C112480916001909166
:100660006101C80ED91E0D2C000CEE08FF089090F9
:100670009001A92CB12CC501880F991F880F991FD3
:10068000FC01EB5CFE4F4081518162817381C41695
:10069000D506E606F7061CF1F8018E2F801B89159A
:1006A00008F475C033E0A31AB108A9E7B1E09801D6
:1006B00090E080E0891508F088C0F90141919F0120
:1006C000E42FF0E0E45FFE4F40818A159B0509F4BA
:1006D0007AC05A964C935A9701961196EBCF8F5C3D
:1006E0009E4FFC0180819181A281B38121E030E0A5
:1006F00040E050E0281B390B4A0B5B0BDA01C901C3
:10070000C816D906EA06FB063CF2712CF7FE0BC0B0
:100710006982F094E094D094C094C11CD11CE11C77
:10072000F11C77247394272D30E0C501821B930BB5
:10073000880F991F880F991FFC01EB5CFE4FFE8705
:10074000ED87A801420F531F588B4F87791410F57E
:10075000ED85FE855290429032902290FE87ED8783
:10076000C701B601A20191010E94CB04EF85F8896F
:100770002193F88BEF87A22FB0E0A20191010E9494
:10078000EA04C61AD70AE80AF90A7394DFCF45E2E9
:10079000419383CF80917F01811184CF95012350B4
:1007A0003109E82FF0E0E217F3070CF07BCFE00F00
:1007B000F11F9081911104C044E240838F5FF1CF1B
:1007C0009A30E0F76FCF406884CF80917E0181112D
:1007D00096C03FB7F8948091700190917101A091FB
:1007E0007201B091730126B5A89B05C02F3F19F087
:1007F0000196A11DB11D3FBFBA2FA92F982F8827A1
:10080000820F911DA11DB11D42E0880F991FAA1FE3
:10081000BB1F4A95D1F72091A30140919B015091B4
:100820009C0160919D0170919E016C017D01C41A33
:10083000D50AE60AF70A4091A1015091A2012111BF
:1008400004C040919F015091A001052E000C660B41
:10085000770BC416D506E606F70664F180939B0174
:1008600090939C01A0939D01B0939E018091920171
:1008700090917D01911126C0222391F01092A30145
:10088000809192018F5F80939201909191018917DD
:1008900010F010929201809192010E9459010AC0B9
:1008A0000E9410018091A1019091A201892B41F336
:1008B0008092A30120E030E0232B09F44ECE0E9469
:1008C00000004BCE222391F01092A301809192015F
:1008D0008F5F8093920190919001891710F0109290
:1008E0009201809192010E942E01E4CF0E94F200B9
:1008F0008091A1019091A201892B41F3D9CF8091E0
:100900007D01F12C81111AC080919101F81690F6A9
:100910008F2D0E94590180919F019091A0010E940A
:1009200087018F2D0E9410018091A1019091A20159
:10093000009711F00E948701F394E6CF8091900117
:10094000F81608F0B7CF8F2D0E942E0180919F01DD
:100950009091A0010E9487018F2D0E94F20080914A
:10096000A1019091A201009711F00E948701F394D8
:10097000E5CFE9E7F1E080ED97E097A386A311A624
:1009800010A612A6178A118E12A213A214A215A2E3
:10099000148215820895052E97FB1EF400940E9480
:1009A000E20457FD07D00E94F50407FC03D04EF483
:1009B0000C94E20450954095309521953F4F4F4F50
:1009C0005F4F089590958095709561957F4F8F4FFB
:1009D0009F4F08950E941705A59F900DB49F900DFD
:1009E000A49F800D911D11240895A1E21A2EAA1B27
:1009F000BB1BFD010DC0AA1FBB1FEE1FFF1FA217CF
:100A0000B307E407F50720F0A21BB30BE40BF50BCB
:100A1000661F771F881F991F1A9469F76095709554
:100A2000809590959B01AC01BD01CF010895A29FD7
:100A3000B001B39FC001A39F700D811D1124911DB2
:100A4000B29F700D811D1124911D0895EE0FFF1F9F
:0C0A50000590F491E02D0994F894FFCF7C
:100A5C000A0B0C0D00010203040506073F065B4F51
:100A6C00666D7D077F6F777C395E79713D76300ED0
:100A7C00763800543F7367506D783E3E00766E5B5F
:100A8C000040806308010000000A000000640000C0
:100A9C0000E803000010270000A086010040420F70
:0E0AAC00008096980000E1F50500CA9A3B0014
:00000001FF
