:100000000C9422010C9453010C9453010C94530151
:100010000C9453010C9453010C9453010C94530110
:100020000C9453010C9453010C9453010C94530100
:100030000C9453010C9453010C9453010C945301F0
:100040000C9453010C9453010C9453010C945301E0
:100050000C9453010C9453010C9453010C94FE0323
:100060000C9453010C9453010C9453010C945301C0
:100070000C9453010C9453010C9453010C945301B0
:100080000C9453010C9453010C9453010C945301A0
:100090000C9453010C9453010C9453010C94530190
:1000A0000C9453010C9453010C9453010C94530180
:1000B0000C9453010C9453010C9453010C94530170
:1000C0000C9453010C9453010C9453010C94530160
:1000D0000C9453010C9453010C9453010C94530150
:1000E0000C9453010C94CD010C94B5010C94C301F4
:1000F0000C94D1010C94C9010C9469020C94B101C7
:100100000C94F8030C949C010C94A0010C94A40191
:100110000C94BF010C9497020C94AB010C94D70182
:100120000C94A8010C94DB010C9496020C948A01A7
:100130000C946F050C94BB010C9485010000210008
:10014000240027002A002D003000330001010000A8
:10015000040107010A0100002200250028002B00ED
:100160002E003100340002010000050108010B01DE
:1001700005050505070508080808020202020A0A23
:100180000808040404040101010101010101030341
:10019000030303030303040707070C0C0C0C0C0CEC
:1001A0000C0C0202020206060606060606060B0BE9
:1001B0000B0B0B0B0B0B010210202008081020402A
:1001C000102040800201020108040201010204081B
:1001D00010204080804020100804020180040201A9
:1001E00080402010080402010804020101020408F2
:1001F00010204080010204081020408000000A0BFB
:1002000002090C0D0E0807030401000000000000A5
:1002100000000000000000000000000000000000DE
:10022000000000000000000012111000000000009B
:1002300000000000000000000000000000000000BE
:1002400000006F0511241FBECFEFD1E2DEBFCDBF8E
:1002500000E00CBF12E0A0E0B2E0E2E7FBE000E06B
:100260000BBF02C007900D92A032B107D9F722E070
:10027000A0E2B2E001C01D92A134B207E1F711E0A3
:10028000C2E2D1E000E006C021970109802FFE0103
:100290000E94AF05C132D10780E00807A9F70E948C
:1002A00048040C94B7050C940000282F30E0F901A5
:1002B000E450FE4F9491F901EA54FE4F44912059C5
:1002C0003E4FF9012491222309F435C0992311F1FD
:1002D00091509231F8F4E92FF0E08827ED58FE4F65
:1002E0008F4F0C94AF05A401A80185019C01A001CA
:1002F0008A01AB01B101B501BB01BF01C301C90155
:10030000CD018A01D101D701DB01809180008F7777
:1003100080938000E22FF0E0EE0FFF1FEA5AFE4FBD
:10032000A591B4918FB7F894EC91611148C04095B4
:100330004E234C938FBF0895809180008F7DE8CF2E
:1003400080918000877FE4CF84B58F7784BDE2CF32
:1003500084B58F7DFBCF8091B0008F778093B00004
:10036000D9CF8091B0008F7DF9CF809190008F77A9
:1003700080939000CFCF809190008F7DF9CF8091B6
:100380009000877FF5CF8091A0008F778093A000A9
:10039000C1CF8091A0008F7DF9CF8091A000877F91
:1003A000F5CF809120018F7780932001B3CF80918A
:1003B00020018F7DF9CF80912001877FF5CF4E2BD3
:1003C000B8CFCF93DF9390E0FC01EA54FE4F249125
:1003D00080599E4FFC0184918823D1F090E0880FD2
:1003E000991FFC01E45CFE4FA591B491FC01EA5A0F
:1003F000FE4FC591D49161110EC09FB7F8948C91B6
:10040000E22FE0958E238C932881E223E8839FBF1F
:10041000DF91CF9108958FB7F894EC91E22BEC9394
:100420008FBFF6CF3FB7F8948091250290912602B6
:10043000A0912702B091280226B5A89B05C02F3FA6
:1004400019F00196A11DB11D3FBFBA2FA92F982FFA
:100450008827BC01CD01620F711D811D911D42E0F5
:10046000660F771F881F991F4A95D1F708958F92BD
:100470009F92AF92BF92CF92DF92EF92FF924B0189
:100480005C010E9412026B017C010E9412026C1935
:100490007D098E099F09683E734081059105A8F387
:1004A00021E0821A9108A108B10888EEC80E83E005
:1004B000D81EE11CF11C81149104A104B10429F798
:1004C000FF90EF90DF90CF90BF90AF909F908F9074
:1004D0000895AF92BF92CF92DF92EF92FF920F9367
:1004E0001F93CF93DF936C017B018B01040F151FCA
:1004F000EB015E01AE18BF08C017D10759F0699132
:10050000D601ED91FC910190F081E02DC601199585
:10051000892B79F7C501DF91CF911F910F91FF9042
:10052000EF90DF90CF90BF90AF900895089590E046
:1005300080E00895FC0101900020E9F73197AF01B8
:10054000481B590BBC0189E292E00C946902CF93DD
:10055000DF93EC0160E08E810E94550161E08E81A5
:100560000E94550160E08E810E9455018BE891E068
:100570000197F1F7DF91CF910895CF92DF92EF923B
:10058000FF920F931F93CF93DF936C017C0187E061
:10059000E80EF11CD0E0C0E0062F10E0B8010C2EF0
:1005A00002C0759567950A94E2F76170F701819131
:1005B0007F010E9455012196C430D10579F7C6010B
:1005C000DF91CF911F910F91FF90EF90DF90CF902F
:1005D0000C94A702CF92DF92EF92FF920F931F939A
:1005E000CF93DF93EC01F62E642F8C810E9455018E
:1005F0008D818F3F19F060E00E9455010F2D10E0B2
:100600008F8584FF25C06E0187E0C80ED11CF12CB8
:10061000E12CB8010E2C02C0759567950A94E2F79B
:100620006170F60181916F010E945501FFEFEF1A91
:10063000FF0A88E0E816F10461F7CE01DF91CF915F
:100640001F910F91FF90EF90DF90CF900C94A70235
:10065000B80184E0759567958A95E1F7CE010E940F
:10066000BD026F2DCE01DF91CF911F910F91FF90B1
:10067000EF90DF90CF900C94BD0240E0682F89E2AC
:1006800092E00C94EA02CF93DF93813029F09091AD
:10069000380298609093380280933C0210923D0299
:1006A00080E480933E0280E180933F0280E5809366
:1006B000400261E080912D020E94E10180912E02B2
:1006C0008F3F19F061E00E94E10161E080912F020B
:1006D0000E94E101C9E2D2E09E012952324080919C
:1006E000380284FD0BC084E090E02196281739077A
:1006F00044F461E08E810E94E101EECF88E090E059
:10070000F4CF8BE39DE00197F1F760E080912D023B
:100710000E94550160E080912F020E945501809156
:100720002E028F3F19F060E00E945501809138023F
:1007300084FD39C063E089E292E00E94BD02CBE40F
:10074000D6E4CE010197F1F763E089E292E00E94DE
:10075000BD022197F1F763E089E292E00E94BD02B9
:1007600083E592E00197F1F762E089E292E00E946E
:10077000BD028091380280620E943D0384E0809334
:1007800039028CE00E943D0381E00E943D038BE32F
:100790009FE10197F1F782E080933A0286E0DF91D2
:1007A000CF910C943D0380620E943D038BE496E45C
:1007B0000197F1F78091380280620E943D0383E542
:1007C00092E00197F1F78091380280620E943D0328
:1007D000D0CF90913C02691710F06FEF690FE62FB0
:1007E000F0E0E75DFD4F9489890F80680C943D032C
:1007F00041E00E94EA0281E090E008951F920F928A
:100800000FB60F9211242F933F938F939F93AF9323
:10081000BF938091210290912202A0912302B09176
:1008200024023091200223E0230F2D3758F5019642
:10083000A11DB11D209320028093210290932202DA
:10084000A0932302B0932402809125029091260266
:10085000A0912702B09128020196A11DB11D80939D
:10086000250290932602A0932702B0932802BF91FD
:10087000AF919F918F913F912F910F900FBE0F904D
:100880001F90189526E8230F0296A11DB11DD2CF07
:10089000CF93DF93CDB7DEB7A1970FB6F894DEBF45
:1008A0000FBECDBF789484B5826084BD84B581606D
:1008B00084BD85B5826085BD85B5816085BD80912B
:1008C0006E00816080936E001092810080918100A3
:1008D000826080938100809181008160809381009B
:1008E000809180008160809380008091B10084605D
:1008F0008093B1008091B00081608093B0008091BE
:10090000910082608093910080919100816080933A
:100910009100809190008160809390008091A1006F
:1009200082608093A1008091A10081608093A100EA
:100930008091A00081608093A0008091210182605D
:100940008093210180912101816080932101809118
:10095000200181608093200180917A0084608093DF
:100960007A0080917A00826080937A0080917A0088
:10097000816080937A0080917A00806880937A0009
:100980001092C10060E086E30E94E10184E00E94D1
:10099000430381E00E943D038BE39FE10197F1F760
:1009A000809139028E7F8093390288600E943D03D6
:1009B00080913902982F9260909339028A600E9448
:1009C0003D0360E080E00E94E9038CE092E00E9439
:1009D0009A0261E082E00E94E90380E192E00E94D5
:1009E0009A0268EE73E080E090E00E94370280E4B3
:1009F000782E9AE0892E912CA12CB12C00E010E0E9
:100A000080917B00877F80937B0070927C00809137
:100A10007A00806480937A0080917A0086FDFCCF12
:100A2000C0907800D090790061E08BE00E94E903EB
:100A30008AE192E00E949A0261E08BE00E94E90361
:100A40000D2C000CEE08FF08F7FE33C041E06DE20C
:100A500089E292E00E94EA0222273327A9012C1999
:100A60003D094E095F0919A2CE0181967C01CA0198
:100A7000B901A50194010E948D05605DF7016293A3
:100A80007F01211531054105510589F7E114F10474
:100A900019F0C7010E949A0268EC70E080E090E0D3
:100AA0000E9437020115110509F4AACF0E94000027
:100AB000A7CFA701960119A2CE0181967C01CA0198
:100AC000B901A50194010E948D05605DF701629353
:100AD0007F01211531054105510589F7D7CFE9E29D
:100AE000F2E01382128284E092E09183808385E1B8
:100AF00084838FEF858384E1868383E1878382E12A
:100B0000808781E1818780E182871386148615863C
:100B10001686178681E00C944303A1E21A2EAA1BC5
:100B2000BB1BFD010DC0AA1FBB1FEE1FFF1FA2179D
:100B3000B307E407F50720F0A21BB30BE40BF50B9A
:100B4000661F771F881F991F1A9469F76095709523
:100B5000809590959B01AC01BD01CF010895EE0FEA
:100B6000FF1F881F8BBF0790F691E02D1994F89412
:020B7000FFCFB5
:100B720000000000F8036902970296024C43440009
:100B8200454A454D504C4F3A20002020202000007D
:00000001FF
