:100000000C9417010C9438010C9438010C943801AD
:100010000C9438010C9438010C9438010C9438017C
:100020000C9438010C9438010C9438010C9438016C
:100030000C9438010C9438010C9438010C9438015C
:100040000C9438010C9438010C9438010C9438014C
:100050000C9438010C9438010C9438010C945F0115
:100060000C9438010C9438010C9438010C9438012C
:100070000C9438010C9438010C9438010C9438011C
:100080000C9438010C9438010C9438010C9438010C
:100090000C9438010C9438010C9438010C943801FC
:1000A0000C9438010C9438010C9438010C943801EC
:1000B0000C9438010C9438010C9438010C943801DC
:1000C0000C9438010C9438010C9438010C943801CC
:1000D0000C9438010C9438010C9438010C943801BC
:1000E0000C9438010C94F8020C94CF020C94060383
:1000F0000C94F2020C94E4020C94D7020C94E002EB
:100100000C94EE020C94FC020C9483020C940003F9
:100110000C94DA020C94D3020C94EA020C94CB02F5
:100120000C947E020C940A03000021002400270096
:100130002A002D00300033000101000004010701F6
:100140000A0100002200250028002B002E003100AB
:10015000340002010000050108010B010505050539
:10016000070508080808020202020A0A080804042F
:10017000040401010101010101010303030303035D
:100180000303040707070C0C0C0C0C0C0C0C0202EC
:10019000020206060606060606060B0B0B0B0B0BE9
:1001A0000B0B010210202008081020401020408076
:1001B000020102010804020101020408102040802B
:1001C00080402010080402018004020180402010B9
:1001D0000804020108040201010204081020408002
:1001E000010204081020408000000A0B02090C0DD7
:1001F0000E080703040100000000000000000000DA
:1002000000000000000000000000000000000000EE
:1002100000000000121110000000000000000000AB
:100220000000000000000000000000000000112499
:100230001FBECFEFD1E2DEBFCDBF00E00CBF12E0AA
:10024000A0E0B2E0E6E3F6E000E00BBF02C00790FA
:100250000D92A838B107D9F722E0A8E8B2E001C0B2
:100260001D92A139B207E1F70E94A9010C9419036C
:100270000C9400003FB7F89480918D0290918E020B
:10028000A0918F02B091900226B5A89B05C02F3F88
:1002900019F00196A11DB11D3FBFBA2FA92F982FAC
:1002A0008827BC01CD01620F711D811D911D42E0A7
:1002B000660F771F881F991F4A95D1F708951F92DF
:1002C0000F920FB60F9211242F933F938F939F930A
:1002D000AF93BF938091890290918A02A0918B0283
:1002E000B0918C023091880223E0230F2D3758F50E
:1002F0000196A11DB11D20938802809389029093DD
:100300008A02A0938B02B0938C0280918D0290910F
:100310008E02A0918F02B09190020196A11DB11D95
:1003200080938D0290938E02A0938F02B0939002DF
:10033000BF91AF919F918F913F912F910F900FBEE1
:100340000F901F90189526E8230F0296A11DB11D4E
:10035000D2CF789484B5826084BD84B5816084BD39
:1003600085B5826085BD85B5816085BD80916E0053
:10037000816080936E001092810080918100826084
:1003800080938100809181008160809381008091C1
:1003900080008160809380008091B10084608093B0
:1003A000B1008091B00081608093B0008091910095
:1003B0008260809391008091910081608093910090
:1003C000809190008160809390008091A100826074
:1003D0008093A1008091A10081608093A100809111
:1003E000A00081608093A0008091210182608093B1
:1003F0002101809121018160809321018091200160
:1004000081608093200180917A00846080937A00DB
:1004100080917A00826080937A0080917A00816076
:1004200080937A0080917A00806880937A0010929D
:10043000C10027E032E0A0E0B2E08D9190E0FC0145
:10044000EE55FE4F4491845A9E4FFC0184918823BF
:1004500099F090E0880F991FFC01E85DFE4FC5916F
:10046000D491FC01EE5BFE4F859194918FB7F89487
:10047000E881E42BE8838FBF2A173B07F1F600E001
:1004800010E0C8E0D2E050E1F52EA0E0B2E021E0BB
:1004900030E04D9150E0FA01E851FE4F8491FA01AD
:1004A000EE55FE4F9491445A5E4FFA014491442315
:1004B00009F43BC0F9013197EC0FFD1F60818823DF
:1004C00011F181508231F8F4E82FF0E08827E459E7
:1004D000FD4F8F4F0C941103D302D7027E02CB0243
:1004E000CF028302DA02E002E402EA02EE02F20242
:1004F000F802FC028302000306030A0380918000D5
:100500008F7780938000E42FF0E0EE0FFF1FEE5B0B
:10051000FE4F459154918FB7F894FA0161117EC056
:1005200060819095962390838FBF2F5F3F4F283037
:10053000310509F0AECF0E943A012B013C0188EE53
:10054000882E83E0982EA12CB12C0E943A016419C8
:10055000750986099709683E734081059105A8F3DE
:10056000F1E08F1A9108A108B10828EE420E23E0AD
:10057000521E611C711C81149104A104B10429F75D
:10058000FA942896F11081CF0115110509F479CF5D
:100590000E94000076CF809180008F7DB2CF809145
:1005A0008000877FAECF84B58F7784BDACCF84B514
:1005B0008F7DFBCF8091B0008F778093B000A3CF69
:1005C0008091B0008F7DF9CF809190008F778093DC
:1005D000900099CF809190008F7DF9CF809190000D
:1005E000877FF5CF8091A0008F778093A0008BCF7D
:1005F0008091A0008F7DF9CF8091A000877FF5CFFB
:10060000809120018F77809320017DCF8091200100
:100610008F7DF9CF80912001877FF5CF6081962B68
:1006200082CFEE0FFF1F881F8BBF0790F691E02D42
:060630001994F894FFCFBD
:100636000001020304050607010101010101000092
:10064600000101000000000001010001010001009D
:10065600010101010000010000010100000101008B
:100666000100010100010100010001010101010079
:10067600010101000000000001010101010101006A
:100686000101010100010100010101000101010058
:10069600000001010101010001000001010100004B
:1006A600000101010100010001000001010101003A
:0806B600010000000101010038
:00000001FF
