:100000000C941A010C944B010C944B010C944B0171
:100010000C944B010C944B010C944B010C944B0130
:100020000C944B010C944B010C944B010C944B0120
:100030000C944B010C944B010C944B010C944B0110
:100040000C944B010C944B010C944B010C944B0100
:100050000C944B010C944B010C944B010C949802A2
:100060000C944B010C944B010C944B010C944B01E0
:100070000C944B010C944B010C944B010C944B01D0
:100080000C944B010C944B010C944B010C944B01C0
:100090000C944B010C944B010C944B010C944B01B0
:1000A0000C944B010C944B010C944B010C944B01A0
:1000B0000C944B010C944B010C944B010C944B0190
:1000C0000C944B010C944B010C944B010C944B0180
:1000D0000C944B010C944B010C944B010C944B0170
:1000E0000C944B010C945E050C94E8010C94F20105
:1000F0000C94EE010C94E0010C94B3010C94BF013C
:100100000C94E4010C94DA010C94C2010C94B70134
:100110000C94BB010C94CC010C94A1010C949C0197
:100120000C94D6010C94D2010C94C80100000A0B67
:1001300002090C0D0E080703040100000000000076
:1001400000000000000000000000000000000000AF
:10015000000000000000000012111000000000006C
:10016000000000000000000000000000000000008F
:10017000000000002200250028002B002E00310086
:10018000340002010000050108010B0100002100FC
:10019000240027002A002D00300033000101000058
:1001A000040107010A0105050505070508080808F7
:1001B000020202020A0A08080404040401010101FF
:1001C00001010101030303030303030304070707FA
:1001D0000C0C0C0C0C0C0C0C02020202060606069F
:1001E000060606060B0B0B0B0B0B0B0B010210206C
:1001F000200808102040102040800201020108045D
:1002000002010102040810204080804020100804F0
:100210000201800402018040201008040201080449
:10022000020101020408102040800102040810208D
:1002300040805E0511241FBECFEFD1E2DEBFCDBFEF
:1002400000E00CBF12E0A0E0B2E0EAEAFBE000E070
:100250000BBF02C007900D92AE35B107D9F722E06F
:10026000AEE5B2E001C01D92A239B207E1F711E09C
:10027000CAE1D1E000E006C021970109802FFE010C
:100280000E94CB05C931D10780E00807A9F70E9479
:10029000E2020C94D3050C94000090E0FC01E451C0
:1002A000FE4F24918A559E4FFC018491882399F03A
:1002B00090E0880F991FFC01E457FE4FA591B4917F
:1002C000FC01EE58FE4F859194918FB7F894EC9114
:1002D000E22BEC938FBF0895282F30E0F901E45D05
:1002E000FE4F9491F901E451FE4F44912A553E4F3F
:1002F000F9012491222309F435C0992311F1915079
:100300009231F8F4E92FF0E08827E657FE4F8F4F3F
:100310000C94CB05BB01BF019C01B301B701A10146
:10032000C201C801CC01D201D601DA01E001E40129
:10033000A101E801EE01F201809180008F778093A6
:100340008000E22FF0E0EE0FFF1FEE58FE4FA59168
:10035000B4918FB7F894EC91611148C040954E2349
:100360004C938FBF0895809180008F7DE8CF80915E
:100370008000877FE4CF84B58F7784BDE2CF84B5DA
:100380008F7DFBCF8091B0008F778093B000D9CF65
:100390008091B0008F7DF9CF809190008F7780930E
:1003A0009000CFCF809190008F7DF9CF8091900009
:1003B000877FF5CF8091A0008F778093A000C1CF79
:1003C0008091A0008F7DF9CF8091A000877FF5CF2D
:1003D000809120018F7780932001B3CF80912001FD
:1003E0008F7DF9CF80912001877FF5CF4E2BB8CF3D
:1003F000CF93DF93C82FD0E080917F02D81758F4B5
:10040000ED2FF0E0E959FD4F60916A0287850E9467
:100410006C01DF5FF1CFEC2FF0E0E959FD4F609107
:1004200068028781DF91CF910C946C01CF93DF93A9
:10043000C82FD0E080917E02D81758F4ED2FF0E05D
:10044000E959FD4F6091680287810E946C01DF5F6E
:10045000F1CFEC2FF0E0E959FD4F60916A028785FA
:10046000DF91CF910C946C011F93CF93DF93C82F32
:10047000D0E0C959DD4F609167028F810E946C0105
:1004800010E06A9680917F021817A8F4E12FF0E03F
:10049000888190E0012E02C0959587950A94E2F735
:1004A00080FF07C0E959FD4F6091690287850E946E
:1004B0006C011F5FE7CFDF91CF911F9108950F93DC
:1004C0001F93CF93C82FE82FF0E0E959FD4F6091BB
:1004D000690287850E946C0101E010E002C0000FF4
:1004E000111FCA95E2F7C0E080917E02C81788F418
:1004F000EC2FF0E0E959FD4F828D90E080239123AD
:10050000892B29F06091670287810E946C01CF5F7F
:10051000EBCFCF911F910F9108958230910538F064
:10052000880F991F880F991F05970197F1F7089574
:100530001F920F920FB60F9211242F933F938F9318
:100540009F93AF93BF938091630290916402A091B7
:100550006502B09166023091620223E0230F2D37CD
:1005600058F50196A11DB11D20936202809363028C
:1005700090936402A0936502B093660280915E023C
:1005800090915F02A0916002B09161020196A11D5D
:10059000B11D80935E0290935F02A0936002B093BE
:1005A0006102BF91AF919F918F913F912F910F90D9
:1005B0000FBE0F901F90189526E8230F0296A11DDD
:1005C000B11DD2CFCF93DF93CDB7DEB762970FB611
:1005D000F894DEBF0FBECDBF789484B5826084BD31
:1005E00084B5816084BD85B5826085BD85B5816037
:1005F00085BD80916E00816080936E0010928100B5
:10060000809181008260809381008091810081606F
:100610008093810080918000816080938000809130
:10062000B10084608093B1008091B00081608093BC
:10063000B000809191008260809391008091910040
:100640008160809391008091900081608093900000
:100650008091A10082608093A1008091A1008160BF
:100660008093A1008091A00081608093A000809180
:10067000210182608093210180912101816080931A
:1006800021018091200181608093200180917A0076
:10069000846080937A0080917A00826080937A00EF
:1006A00080917A00816080937A0080917A008068DE
:1006B00080937A001092C100809100029091010213
:1006C000A0910202B091030289879A87AB87BC8709
:1006D00088E0E4E0F2E08E010F5F1F4FD801019047
:1006E0000D928A95E1F710926B0210926C021092B3
:1006F0006D0284E080937E0288E080937F0281E037
:1007000080936702109269021092680280936A02D5
:10071000F801A6E7B2E0CE01099621912D93E817E2
:10072000F907D9F7898580936E028A8580936F02D5
:100730008B85809370028C8580937102F12C80915F
:100740007E02F81698F48F2D90E09C0129593D4FB8
:100750006901D90117968C910E944D016091680240
:10076000F60187810E946C01F394E9CFF12C80910E
:100770007F02F81650F090917E02E1E8F2E080E00E
:100780009817B1F011928F5FFBCF8F2D90E09C01F5
:1007900029593D4F6901D9011F968C910E944D0145
:1007A00060916A02F60187850E946C01F394DFCFA5
:1007B00080E00E94160280E00E94F80188EE93E03B
:1007C00090938E0280938D021092900210928F026D
:1007D00010929102CC24C394D0907E028D2C912C47
:1007E0005401AA0CBB1CAA0CBB1CF501EB5CFD4F11
:1007F00080819181A281B381833D9440A105B1059F
:10080000BCF4F8018E2F801B8D1508F467C081E8B9
:1008100092E0D8012A2F201B2D1508F07BC0ED9106
:10082000F0E0E45FFD4F2081FC012193CF01F2CF86
:10083000D501AF5CBD4F8D919D910D90BC91A02DC8
:1008400021E030E040E050E0281B390B4A0B5B0B05
:10085000DA01C901833D9440A105B10594F67F01F9
:1008600018012CEFA4012403C001259F900D112431
:100870009A8B898B52ED452E54E0552E612C712CAC
:1008800045E3E41642E0F40661F154E0E51AF108AC
:10089000E989FA89EE0DFF1DEA0DFB1D808191812A
:1008A000A281B3818D879E87AF87B88BC301B201C8
:1008B0002D853E854F8558890E947005D1012D9365
:1008C0001D01A22FB0E02D853E854F8558890E94DD
:1008D0008F05461A570A680A790AD2CF35E2319352
:1008E00091CF80916D02811192CFB1E08B1A910866
:1008F000E82FF0E0E815F9050CF089CFE00FF11FC3
:100900009081911104C024E220838F5FF1CF9A304F
:10091000E0F77DCF80916C02811196C03FB7F894CB
:1009200080915E0290915F02A0916002B09161029D
:1009300026B5A89B05C02F3F19F00196A11DB11D3A
:100940003FBFBA2FA92F982F8827820F911DA11D75
:10095000B11D42E0880F991FAA1FBB1F4A95D1F70E
:10096000209191024091890250918A0260918B02FC
:1009700070918C024C015D01841A950AA60AB70A8F
:1009800040918F0250919002211104C040918D023C
:1009900050918E02052E000C660B770B841695067F
:1009A000A606B70664F18093890290938A02A09309
:1009B0008B02B0938C028091800290916B02911116
:1009C00026C0222391F010929102809180028F5FC5
:1009D0008093800290917F02891710F0109280021C
:1009E000809180020E945F020AC00E9416028091DC
:1009F0008F0290919002892B41F3C092910220E0E6
:100A000030E0232B09F4E8CE0E940000E5CE22233B
:100A100091F010929102809180028F5F809380020A
:100A200090917E02891710F01092800280918002CE
:100A30000E943402E4CF0E94F80180918F029091CD
:100A40009002892B41F3D9CF80916B02F12C811157
:100A50001AC080917F02F81690F68F2D0E945F02D7
:100A600080918D0290918E020E948D028F2D0E94A6
:100A7000160280918F0290919002009711F00E94CF
:100A80008D02F394E6CF80917E02F81608F0B7CF7E
:100A90008F2D0E94340280918D0290918E020E94CF
:100AA0008D028F2D0E94F80180918F02909190020B
:100AB000009711F00E948D02F394E5CFE7E6F2E093
:100AC00080ED97E097A386A311A610A612A6178A19
:100AD000118E12A213A214A215A2148215820895D7
:100AE000052E97FB1EF400940E94870557FD07D042
:100AF0000E949A0507FC03D04EF40C94870550958C
:100B00004095309521953F4F4F4F5F4F08959095F9
:100B10008095709561957F4F8F4F9F4F08950E94EC
:100B2000BC05A59F900DB49F900DA49F800D911DB5
:100B300011240895A1E21A2EAA1BBB1BFD010DC0B2
:100B4000AA1FBB1FEE1FFF1FA217B307E407F5077D
:100B500020F0A21BB30BE40BF50B661F771F881F59
:100B6000991F1A9469F760957095809590959B01EF
:100B7000AC01BD01CF010895A29FB001B39FC00198
:100B8000A39F700D811D1124911DB29F700D811DB9
:100B90001124911D0895EE0FFF1F881F8BBF079032
:0A0BA000F691E02D1994F894FFCFB0
:100BAA0002030405060708090A0B0C0D3F065B4FF2
:100BBA00666D7D077F6F777C395E79713D76300E81
:100BCA00763800543F7367506D783E3E00766E5B10
:100BDA000040806308010000000A00000064000071
:100BEA0000E803000010270000A086010040420F21
:0E0BFA00008096980000E1F50500CA9A3B00C5
:00000001FF
