:100000000C945D000C9485000C9485000C94850084
:100010000C9485000C9485000C9485000C9485004C
:100020000C9485000C9485000C9485000C9485003C
:100030000C9485000C9485000C9485000C9485002C
:100040000C9492010C9485000C9485000C9485000E
:100050000C9485000C9485000C9485000C9485000C
:100060000C9485000C94850000000008000201003B
:100070000003040700000000000000000000000072
:10008000250028002B0000000000240027002A0083
:10009000040404040404040402020202020203032E
:1000A0000303030301020408102040800102040836
:1000B00010200102040810209D0411241FBECFEF60
:1000C000D8E0DEBFCDBF11E0A0E0B1E0E4E2FAE0AD
:1000D00002C005900D92AE35B107D9F721E0AEE52B
:1000E000B1E001C01D92AC39B207E1F710E0CDE5F7
:1000F000D0E004C02197FE010E940A05CC35D1074B
:10010000C9F70E94DC010C9410050C94000090E0EB
:10011000FC01EC55FF4F249180579F4FFC018491C7
:10012000882399F090E0880F991FFC01EA57FF4F50
:10013000A591B491FC01E458FF4F859194918FB73C
:10014000F894EC91E22BEC938FBF089590E0FC01C2
:10015000E859FF4F2491FC01EC55FF4F3491FC010D
:10016000E057FF4FE491EE23C9F0222339F023300A
:1001700001F1A8F4213019F1223029F1F0E0EE0F5D
:10018000FF1FE458FF4FA591B4918FB7F894EC91FD
:10019000611126C030953E233C938FBF08952730D0
:1001A000A9F02830C9F0243049F7809180008F7D74
:1001B00003C0809180008F7780938000DFCF84B56B
:1001C0008F7784BDDBCF84B58F7DFBCF8091B0006E
:1001D0008F778093B000D2CF8091B0008F7DF9CF20
:1001E0003E2BDACFCF93DF93C82FD0E080918901E7
:1001F000D81758F4ED2FF0E0EF58FE4F60917401DE
:1002000087850E94A600DF5FF1CFEC2FF0E0EF586A
:10021000FE4F609172018781DF91CF910C94A6000F
:10022000CF93DF93C82FD0E080918801D81758F47E
:10023000ED2FF0E0EF58FE4F6091720187810E9430
:10024000A600DF5FF1CFEC2FF0E0EF58FE4F60919A
:1002500074018785DF91CF910C94A6001F93CF93F3
:10026000DF93C82FD0E0CF58DE4F609171018F81AE
:100270000E94A60010E06A96809189011817A8F4E0
:10028000E12FF0E0888190E0012E02C095958795DE
:100290000A94E2F780FF07C0EF58FE4F60917301A8
:1002A00087850E94A6001F5FE7CFDF91CF911F9146
:1002B00008950F931F93CF93C82FE82FF0E0EF58C6
:1002C000FE4F6091730187850E94A60001E010E057
:1002D00002C0000F111FCA95E2F7C0E080918801AB
:1002E000C81788F4EC2FF0E0EF58FE4F828D90E0B5
:1002F00080239123892B29F06091710187810E94CD
:10030000A600CF5FEBCFCF911F910F910895823060
:10031000910538F0880F991F880F991F059701974D
:10032000F1F708951F920F920FB60F9211242F9399
:100330003F938F939F93AF93BF9380916D01909163
:100340006E01A0916F01B091700130916C0123E0BA
:10035000230F2D3758F50196A11DB11D20936C0177
:1003600080936D0190936E01A0936F01B093700123
:100370008091680190916901A0916A01B0916B012F
:100380000196A11DB11D8093680190936901A0930E
:100390006A01B0936B01BF91AF919F918F913F9193
:1003A0002F910F900FBE0F901F90189526E8230FE6
:1003B0000296A11DB11DD2CFCF93DF93CDB7DEB78B
:1003C0002E970FB6F894DEBF0FBECDBF789484B5DC
:1003D000826084BD84B5816084BD85B5826085BD41
:1003E00085B5816085BD80916E00816080936E00CF
:1003F00010928100809181008260809381008091C1
:100400008100816080938100809180008160809371
:1004100080008091B10084608093B1008091B00031
:1004200081608093B00080917A00846080937A002C
:1004300080917A00826080937A0080917A00816056
:1004400080937A0080917A00806880937A0010927D
:10045000C1008091000190910101A0910201B09131
:10046000030189879A87AB87BC8788E0E4E0F1E0E5
:100470008E010F5F1F4FD80101900D928A95E1F711
:1004800010927501109276011092770184E08093AA
:10049000880188E08093890181E080937101109246
:1004A00073011092720180937401F801A0E8B1E029
:1004B000CE01099621912D93E817F907D9F789857F
:1004C000809378018A85809379018B8580937A0166
:1004D0008C8580937B01F12C80918801F81690F433
:1004E0008F2D90E09C012F583E4F6901F9018781C3
:1004F0000E94870060917201F60187810E94A60028
:10050000F394EACFF12C80918901F81650F0909184
:100510008801EBE8F1E080E09817A9F011928F5F75
:10052000FBCF8F2D90E09C012F583E4F6901F901C0
:1005300087850E94870060917401F60187850E947B
:10054000A600F394E0CF80E00E94100180E00E94BA
:10055000F20088E097E090939801809397011092C1
:100560009A011092990110929B018FB7F8944091D3
:100570006D0150916E0160916F01709170018FBF9C
:100580008091640190916501A0916601B09167012D
:10059000481B590B6A0B7B0B4031510561057105F6
:1005A00008F440C04096A11DB11D80936401909352
:1005B0006501A0936601B0936701809162019091FB
:1005C000630101969093630180936201CC976CF074
:1005D000809160019091610110926301109262011B
:1005E00001969093610180936001809160019091E8
:1005F0006101CC976CF080915E0190915F01109247
:10060000610110926001019690935F0180935E01F9
:1006100080915E0190915F01489724F010925F01F4
:1006200010925E0180915E0190915F01F4E6F89F67
:100630006001F99FD00C11248091600190916101BB
:10064000C80ED91E0D2C000CEE08FF08A0908801E2
:100650008A2D90E09C01220F331F220F331FF901D6
:10066000EB5CFE4F4081518162817381C416D506D7
:10067000E606F706BCF0F8018E2F801B8A1508F4F9
:100680006AC08BE891E0D8012A2F201B2A1508F0B8
:100690007DC0ED91F0E0E45FFE4F2081FC012193ED
:1006A000CF01F2CF2F5C3E4FF90140815181628131
:1006B0007381612C712C43016394641A750A860A54
:1006C000970AB401A301C416D506E606F7069CF204
:1006D000B12CF7FE0DC075E2872E8982F094E0946C
:1006E000D094C094C11CD11CE11CF11CBB24B39458
:1006F0002B2D30E0AC01415051091A01821B930BA4
:10070000880F991F880F991FFC01EB5CFE4FFE8735
:10071000ED874801820E931EBA1408F5ED85FE851B
:100720007290629052904290FE87ED87C701B601A9
:10073000A30192010E94AF04F40121934F01A22F63
:10074000B0E0A30192010E94CE04C61AD70AE80ABB
:10075000F90AB394E1CFA5E27A2E71928DCF809100
:10076000770181118ECFE82FF0E0E215F3050CF050
:1007700088CFE00FF11F9081911105C054E2652EE2
:1007800060828F5FF0CF9A30E0F77BCF8091760167
:10079000811199C03FB7F8948091680190916901E7
:1007A000A0916A01B0916B0126B5A89B05C02F3FAF
:1007B00019F00196A11DB11D3FBFBA2FA92F982F87
:1007C0008827820F911DA11DB11D42E0880F991F3E
:1007D000AA1FBB1F4A95D1F720919B01409193011D
:1007E0005091940160919501709196016C017D0189
:1007F000C41AD50AE60AF70A4091990150919A0164
:10080000211104C04091970150919801052E000CD0
:10081000660B770BC416D506E606F7066CF18093D7
:10082000930190939401A0939501B09396018091C8
:100830008A0190917501911129C0222391F01092A3
:100840009B0180918A018F5F80938A019091890139
:10085000891710F010928A0180918A010E94590133
:100860000BC00E9410018091990190919A01892BEF
:1008700041F3F1E0F0939B0180E0682E80E0782E58
:10088000672809F472CE0E9400006FCE222391F0F7
:1008900010929B0180918A018F5F80938A019091D1
:1008A0008801891710F010928A0180918A010E94B4
:1008B0002E01E2CF0E94F2008091990190919A015D
:1008C000892B41F3D6CF80917501F12C81111AC08B
:1008D00080918901F81680F68F2D0E945901809130
:1008E0009701909198010E9487018F2D0E9410011D
:1008F0008091990190919A01009711F00E948701CF
:10090000F394E6CF80918801F81608F0B5CF8F2DCB
:100910000E942E0180919701909198010E94870179
:100920008F2D0E94F2008091990190919A01009779
:1009300011F00E948701F394E5CFE1E7F1E080ED4B
:1009400097E097A386A311A610A612A6178A118E68
:1009500012A213A214A215A2148215820895052EC4
:1009600097FB1EF400940E94C60457FD07D00E9416
:10097000D90407FC03D04EF40C94C604509540955E
:10098000309521953F4F4F4F5F4F0895909580953B
:10099000709561957F4F8F4F9F4F08950E94FB0484
:1009A000A59F900DB49F900DA49F800D911D1124C3
:1009B0000895A1E21A2EAA1BBB1BFD010DC0AA1FA0
:1009C000BB1FEE1FFF1FA217B307E407F50720F0B8
:1009D000A21BB30BE40BF50B661F771F881F991F33
:1009E0001A9469F760957095809590959B01AC017C
:1009F000BD01CF010895A29FB001B39FC001A39F85
:100A0000700D811D1124911DB29F700D811D112447
:100A1000911D0895EE0FFF1F0590F491E02D0994AC
:040A2000F894FFCF78
:100A24000A0B0C0D02030405060708093F065B4F79
:100A3400666D7D077F6F777C395E79713D76300E08
:100A4400763800543F7367506D783E3E00766E5B97
:100A54000040806308010000000A000000640000F8
:100A640000E803000010270000A086010040420FA8
:0E0A7400008096980000E1F50500CA9A3B004C
:00000001FF
