:100000000C9435010C9466010C9466010C94660105
:100010000C9466010C9466010C9466010C946601C4
:100020000C9466010C9466010C9466010C946601B4
:100030000C9466010C9466010C9466010C946601A4
:100040000C9466010C9466010C9466010C94660194
:100050000C9466010C9466010C9466010C942B06BA
:100060000C9466010C9466010C9466010C94660174
:100070000C9466010C9466010C9466010C94660164
:100080000C9466010C9466010C9466010C94660154
:100090000C9466010C9466010C9466010C94660144
:1000A0000C9466010C9466010C9466010C94660134
:1000B0000C9466010C9466010C9466010C94660124
:1000C0000C9466010C9466010C9466010C94660114
:1000D0000C9466010C9466010C9466010C94660104
:1000E0000C9466010C941E030C9423020C9446029B
:1000F0000C944C020C9454020C945E020C94530326
:100100000C9450020C942B020C94FB040C94F409F4
:100110000C943E020C9438020C942E020C941A0398
:100120000C9452030C9442020C9427020C94220368
:100130000C945A020C941F020C9425030C9419027F
:100140000C9434020C945902000021002400270072
:100150002A002D00300033000101000004010701D6
:100160000A0100002200250028002B002E0031008B
:10017000340002010000050108010B01000020000D
:100180002300260029002C002F003200000100006F
:10019000030106010901050505050705080808080A
:1001A000020202020A0A080804040404010101010F
:1001B000010101010303030303030303040707070A
:1001C0000C0C0C0C0C0C0C0C0202020206060606AF
:1001D000060606060B0B0B0B0B0B0B0B010210207C
:1001E000200808102040102040800201020108046D
:1001F0000201010204081020408080402010080401
:100200000201800402018040201008040201080459
:10021000020101020408102040800102040810209D
:10022000408000000A0B02090C0D0E0807030401B0
:1002300000000000000000000000000000000000BE
:10024000000000000000000000000000000012118B
:10025000100000000000000000000000000000008E
:100260000000000000000000F40911241FBECFEFC1
:10027000D1E2DEBFCDBF00E00CBF12E0A0E0B2E0F3
:10028000E8EAF9E100E00BBF02C007900D92AC353F
:10029000B107D9F722E0ACE5B2E001C01D92AA3F58
:1002A000B207E1F711E0C5E3D1E000E006C0219715
:1002B0000109802FFE010E94CA0CC433D10780E0DF
:1002C0000807A9F70E9475060C94D20C0C94000044
:1002D00096E0899FD0011124AD58BD4F90967C9334
:1002E0006E935F9791E091969C939197E091E002D5
:1002F000F091E1029091DF02992339F0309751F0AB
:10030000811108C080918F021994309719F05C9682
:100310008C91FACF0895CF92DF92EF92FF920F93D4
:100320001F9396E0899FF0011124ED58FD4F11A213
:10033000278D30A12130310551F178F0223031057F
:1003400009F451C02330310509F452C01F910F91B7
:10035000FF90EF90DF90CF9008956623B9F361E0AE
:1003600070E00E9468012FB7F89480916F0290911D
:100370007002A0917102B09172022FBF8093CB02E4
:100380009093CC02A093CD02B093CE02DFCF9FB763
:10039000F894C0906F02D0907002E0907102F090DB
:1003A00072029FBF0091CB021091CC022091CD022E
:1003B0003091CE02C01AD10AE20AF30A0091DD029E
:1003C0001091DE0230E020E00C151D052E053F05E2
:1003D00050F462E070E01F910F91FF90EF90DF907A
:1003E000CF900C9468016111B1CF63E070E0F3CF5E
:1003F00070E060E0F0CF8150823108F05AC0E82F01
:10040000F0E08827E95FFD4F8F4F0C94CA0C27025C
:100410002B0219021F02230259022E023402380253
:100420003E02420246024C025002590254025A0253
:100430005E02809180008F77809380000895809184
:1004400080008F7DF9CF80918000877FF5CF84B5C4
:100450008F7784BD089584B58F7DFBCF8091B000E8
:100460008F778093B00008958091B0008F7DF9CF91
:10047000809190008F7780939000089580919000F4
:100480008F7DF9CF80919000877FF5CF8091A0007C
:100490008F778093A00008958091A0008F7DF9CF81
:1004A0008091A000877FF5CF809120018F77809386
:1004B00020010895809120018F7DF9CF8091200146
:1004C000877FF5CFCF93DF93282F30E0F901EE5DE2
:1004D000FD4F8491F901E452FE4FD491F901EA569F
:1004E000FE4FC491CC23A1F081110E94FB01EC2F9F
:1004F000F0E0EE0FFF1FE458FE4FA591B491EC9190
:10050000ED2381E090E009F480E0DF91CF91089540
:1005100080E090E0FACF1F93CF93DF93282F30E055
:10052000F901EE5DFD4F8491F901E452FE4FD49143
:10053000F901EA56FE4FC491CC23A9F0162F811180
:100540000E94FB01EC2FF0E0EE0FFF1FEE59FE4F73
:10055000A591B4918FB7F894EC91111108C0D09582
:10056000DE23DC938FBFDF91CF911F910895DE2BA7
:10057000F8CFCF93DF9390E0FC01E452FE4F24913B
:100580008A569E4FFC0184918823C9F090E0880F21
:10059000991FFC01E85BFE4FA591B491FC01EE5957
:1005A000FE4FC591D49161110DC09FB7F8948C9105
:1005B000209582238C938881282328839FBFDF91F5
:1005C000CF910895623051F49FB7F8943C91822FF7
:1005D000809583238C93E8812E2BEFCF8FB7F894EF
:1005E000EC912E2B2C938FBFEACF3FB7F8948091DC
:1005F0006B0290916C02A0916D02B0916E0226B5D3
:10060000A89B05C02F3F19F00196A11DB11D3FBF4A
:10061000BA2FA92F982F8827BC01CD01620F711D19
:10062000811D911D42E0660F771F881F991F4A9513
:10063000D1F70895862F642F0C94B902862F642F6A
:100640000C948B02862F0C946202AF92BF92CF92D1
:10065000DF92EF92FF920F931F93CF93DF936C0182
:100660007B018B01040F151FEB015E01AE18BF0863
:10067000C017D10759F06991D601ED91FC91019015
:10068000F081E02DC6011995892B79F7C501DF911D
:10069000CF911F910F91FF90EF90DF90CF90BF907F
:1006A000AF900895089590E080E00895FC010190D6
:1006B0000020E9F73197AF01481B590BBC0182EECE
:1006C00092E00C9425038F929F92AF92BF920F936A
:1006D0001F93CF93DF93CDB7DEB7A1970FB6F894F2
:1006E000DEBF0FBECDBF19A2423008F44AE08E0132
:1006F0000F5D1F4F842E912CB12CA12CA5019401CC
:100700000E94A80CE62FB901CA01EA30F4F4E05DBA
:10071000D801EE938D01232B242B252B79F790E024
:1007200080E0109719F0CD010E945603A1960FB6F4
:10073000F894DEBF0FBECDBFDF91CF911F910F9117
:10074000BF90AF909F908F900895E95CE1CFCF93D9
:10075000DF93EC0160E08E810E948B0261E08E816C
:100760000E948B0260E08E810E948B028BE891E0F8
:100770000197F1F7DF91CF910895CF92DF92EF9239
:10078000FF920F931F93CF93DF936C017C0187E05F
:10079000E80EF11CD0E0C0E0062F10E0B8010C2EEE
:1007A00002C0759567950A94E2F76170F70181912F
:1007B0007F010E948B022196C430D10579F7C601D2
:1007C000DF91CF911F910F91FF90EF90DF90CF902D
:1007D0000C94A703CF92DF92EF92FF920F931F9397
:1007E000CF93DF93EC01F62E642F8C810E948B0255
:1007F0008D818F3F19F060E00E948B020F2D10E079
:100800008F8584FF25C06E0187E0C80ED11CF12CB6
:10081000E12CB8010E2C02C0759567950A94E2F799
:100820006170F60181916F010E948B02FFEFEF1A58
:10083000FF0A88E0E816F10461F7CE01DF91CF915D
:100840001F910F91FF90EF90DF90CF900C94A70332
:10085000B80184E0759567958A95E1F7CE010E940D
:10086000BD036F2DCE01DF91CF911F910F91FF90AE
:10087000EF90DF90CF900C94BD0340E0682F82EEA4
:1008800092E00C94EA0381E00E943D048BE39FE137
:100890000197F1F70895CF93DF93823029F4909177
:1008A000F10298609093F1028093F5021092F602A3
:1008B00080E48093F70280E18093F80280E58093E2
:1008C000F90261E08091E6020E94B9028091E7029C
:1008D0008F3F19F061E00E94B90261E08091E80267
:1008E0000E94B902C2EED2E09E01225E32408091A7
:1008F000F10284FD0BC084E090E0219628173907AF
:1009000044F461E08E810E94B902EECF88E090E06D
:10091000F4CF8BE39DE00197F1F760E08091E60270
:100920000E948B0260E08091E8020E948B0280911D
:10093000E7028F3F19F060E00E948B028091F10284
:1009400084FD34C063E082EE92E00E94BD03CBE4FC
:10095000D6E4CE010197F1F763E082EE92E00E94C7
:10096000BD032197F1F763E082EE92E00E94BD03A0
:1009700083E592E00197F1F762E082EE92E00E9457
:10098000BD038091F10280620E943D0484E0809367
:10099000F2028CE00E943D040E94430482E08093B6
:1009A000F30286E0DF91CF910C943D0480620E94B7
:1009B0003D048BE496E40197F1F78091F1028062A7
:1009C0000E943D0483E592E00197F1F78091F102E6
:1009D00080620E943D04D5CF9091F502691710F016
:1009E0006FEF690FE62FF0E0EE51FD4F9489890F0C
:1009F00080680C943D0441E00E94EA0381E090E0AD
:100A0000089541E0682F82EE92E00E94EA0381E0BF
:100A100090E008954F925F926F927F928F929F9293
:100A2000AF92BF92CF92DF92EF92FF920F931F93FC
:100A3000CF936B017C01742EAC019B010E94A30C2F
:100A4000882399F088E392E0CF911F910F91FF9056
:100A5000EF90DF90CF90BF90AF909F908F907F905E
:100A60006F905F904F900C94560346015701E894A5
:100A7000B7F82FEF3FEF4FE75FE7C501B4010E94E2
:100A8000A30C81110DC02FEF3FEF4FE75FE7C501CA
:100A9000B4010E94D90A18161CF48CE392E0D4CF5A
:100AA0002FEF3FEF4FE75FE4C701B6010E94310C23
:100AB00018161CF480E492E0C7CF2FEF3FEF4FE70A
:100AC0005FECC701B6010E94D90A87FDF3CF20E091
:100AD00030E0A901C701B6010E94D90A10E000E088
:100AE00087FF08C08DE20E9401058C01F7FAF0949F
:100AF000F7F8F094C0E060E070E080E09FE37C16DF
:100B000041F020E030E040E251E40E94DE0ACF5F95
:100B1000F6CFA70196010E946D0A2B013C010E94AD
:100B2000500B4B015C014AE00E9463037C01E00E24
:100B3000F11ECC23B1F1C501B4010E947F0B9B01D2
:100B4000AC01C301B2010E946C0A4B015C018EE250
:100B50000E940105E80EF91EC15018F120E030E0B6
:100B600040E251E4C501B4010E94360C2B013C0166
:100B70000E94500B4B01B12CA12C4AE0C501B401DD
:100B80000E946303E80EF91EC501B4010E947F0BA9
:100B90009B01AC01C301B2010E946C0A4B015C01D4
:100BA000DBCFC701CF911F910F91FF90EF90DF90A6
:100BB000CF90BF90AF909F908F907F906F905F90FD
:100BC0004F9008950E94430460E080E00E94EC048E
:100BD00020916902609164027091650280916602C1
:100BE0009091670230911D02303201F1211120C035
:100BF00042E00E940A0580911D020E94010561E009
:100C000080E00E94EC0484E492E00E94560361E0DC
:100C100082E00E94EC0460915C0270915D02809120
:100C20005E0290915F0242E00C940A05222379F063
:100C300042E00E940A0580911D020E940105609118
:100C4000600270916102809162029091630242E0C1
:100C50000E940A05D4CF1F920F920FB60F92112453
:100C60002F933F938F939F93AF93BF9380916F0286
:100C700090917002A0917102B091720230916A025B
:100C800023E0230F2D3758F50196A11DB11D2093A8
:100C90006A0280936F0290937002A0937102B093E6
:100CA000720280916B0290916C02A0916D02B091E2
:100CB0006E020196A11DB11D80936B0290936C0290
:100CC000A0936D02B0936E02BF91AF919F918F91EF
:100CD0003F912F910F900FBE0F901F90189526E80F
:100CE000230F0296A11DB11DD2CF789484B58260E6
:100CF00084BD84B5816084BD85B5826085BD85B5C0
:100D0000816085BD80916E00816080936E0010923D
:100D100081008091810082608093810080918100B8
:100D20008160809381008091800081608093800049
:100D30008091B10084608093B1008091B0008160A7
:100D40008093B000809191008260809391008091A7
:100D500091008160809391008091900081608093E8
:100D600090008091A10082608093A1008091A100F9
:100D700081608093A1008091A00081608093A00099
:100D80008091210182608093210180912101816005
:100D900080932101809120018160809320018091C6
:100DA0007A00846080937A0080917A0082608093D8
:100DB0007A0080917A00816080937A0080917A0035
:100DC000806880937A001092C10082E00E944B04F8
:100DD00060E080E00E94EC0486E492E00E9456030A
:100DE00061E080E00E94EC0482E592E00E945603FC
:100DF0000E94F5024B015C015CEDC52E55E0D52E3D
:100E0000E12CF12C0E94F502681979098A099B09E5
:100E1000683E734081059105A8F321E0C21AD1080C
:100E2000E108F10838EE830E33E0931EA11CB11CDB
:100E3000C114D104E104F10429F70E9443040E9483
:100E4000E2054FEA242E42E0342E11E000E2109336
:100E5000DF028FB7F89440916F0250917002609159
:100E60007102709172028FBF8091CF029091D00277
:100E7000A091D102B091D202481B590B6A0B7B0B97
:100E80008091DB029091DC02B0E0A0E0841795072E
:100E9000A607B70708F01FC1C0E08091D902C817A4
:100EA00060F4E091D502F091D602EC0FF11D62E002
:100EB00080810E94B902CF5FF0CF912C8091DA023D
:100EC000981608F061C0E92CF12CE091D702F0915E
:100ED000D802EE0DFF1D61E080810E94B902E09111
:100EE000D702F091D802EE0DFF1D60E080810E94D4
:100EF0008B0281E090E0A0E0B0E0092C04C0880FF4
:100F0000991FAA1FBB1F0A94D2F75C016C01C09401
:100F1000D094812C8091D9028816F8F4C82DD0E0A5
:100F2000E091D502F091D602EC0FFD1F80810E9466
:100F300062022496CC0FDD1FCD58DD4F892B41F482
:100F4000888199818A299B29998388838394E2CF18
:100F5000888199818C219D21F7CFE091D702F09172
:100F6000D802EE0DFF1D61E080810E948B0280910E
:100F7000D7029091D802E80EF91E60E0F701808157
:100F80000E94B90293949ACFC3E7D2E07E01D701C1
:100F90005F968D919C919097892B59F45C961C9249
:100FA0005C97EFEFFFEF5E96FC93EE935D97919663
:100FB0001C92F6E0EF0EF11C2E143F0441F7D12CE9
:100FC0008091D902D81608F053C0C12C8D2D90E025
:100FD000880F991F9C0125583D4F59014091DA0215
:100FE000C41608F043C0D5016D917C910C2C02C051
:100FF000769567950A94E2F7D49EA00111244C0DD2
:10100000511DE3E7F2E080E0258D368D421753074E
:1010100009F4E8C18F5F36968A30B1F760FF24C0CB
:10102000E3E7F2E090E080E0248D211118C0E09128
:10103000D302F091D402E40FF51F2081B6E0B89FEF
:10104000F001B99FF00D1124ED58FD4F248F568FFC
:10105000458F10A2178E61E00E948B0105C001969A
:1010600036968A30910501F7C394B8CFD394A8CFB0
:1010700080E099A19111892F2696CE15DF05C9F739
:101080009FB7F89440916F02509170026091710285
:10109000709172029FBF4093CF025093D002609331
:1010A000D1027093D2028823B1F0809194028823F8
:1010B00091F08091920290919302019761F4609176
:1010C0008F0261110BC0A0E0B0E0AB2B09F4BFCEE2
:1010D0000E940000BACE1092DF02F5CF80ED860F9D
:1010E0008A3008F099C0C0916802062E000C770B78
:1010F00060537109072E000C880B990B0E94810B1D
:101100006B017C018091690281114CC040906402A6
:10111000509065026090660270906702C11117C01E
:1011200020E030E040E251E4C301B2010E94360CFD
:10113000A70196010E946D0A609364027093650294
:1011400080936602909367020E94E205BCCF809074
:101150001E0290901F02A0902002B0902102A701D1
:101160009601C501B4010E94360CA30192010E94B0
:101170006D0A609364027093650280936602909397
:10118000670220E030E040E251E4C501B4010E9472
:10119000DE0A60931E0270931F02809320029093D8
:1011A0002102D2CF409060025090610260906202B2
:1011B00070906302C11115C020E030E040E251E4BC
:1011C000C301B2010E94360CA70196010E946D0A6C
:1011D0006093600270936102809362029093630255
:1011E000B3CF80901E0290901F02A0902002B0907A
:1011F0002102A7019601C501B4010E94360CA3018A
:1012000092010E946D0A6093600270936102809364
:10121000620290936302B5CF6E3279F41093680244
:101220008DEC9CECACECBDE380931E0290931F020E
:10123000A0932002B093210246CF862F8D7F8D325E
:1012400021F086ED860F823098F460931D02109392
:101250006902109268028DEC9CECACECBDE38093CB
:101260001E0290931F02A0932002B09321026CCF24
:101270006D3309F097C080911D028B3209F448C08C
:1012800024F58A3209F472C00E94E20580915C0262
:1012900090915D02A0915E02B0915F028093640222
:1012A00090936502A0936602B09367021092600269
:1012B00010926102109262021092630200931D026A
:1012C0001092690210926802ABCF8D32E1F18F3239
:1012D000D9F6C0906002D0906102E0906202F09076
:1012E000630220E030E0A901C701B6010E94D90ADB
:1012F000882309F44EC0A7019601609164027091A1
:10130000650280916602909167020E94DE0A12C017
:10131000209160023091610240916202509163021B
:1013200060916402709165028091660290916702FB
:101330000E946D0A60935C0270935D0280935E026E
:1013400090935F02A1CF20916002309161024091A1
:101350006202509163026091640270916502809113
:101360006602909167020E946C0AE4CF20916002AD
:101370003091610240916202509163026091640277
:101380007091650280916602909167020E94360C0E
:10139000D1CF10925C0210925D0210925E02109208
:1013A0005F0272CF633409F08ECE10926402109205
:1013B000650210926602109267021092600210920B
:1013C0006102109262021092630210925C0210920B
:1013D0005D0210925E0210925F0200931D02109255
:1013E000690237CF617038CE1092E5021092E402A4
:1013F00080E392E09093E3028093E20287E080939F
:10140000E6028FEF8093E70288E08093E80289E0AC
:101410008093E9028AE08093EA028BE08093EB02FA
:101420008CE08093EC021092ED021092EE0210928A
:10143000EF021092F0021092F10281E00E944B0440
:1014400010927502109279021092780210927A022C
:1014500086E292E09093740280937302EFE8F2E0E8
:101460001082148213821582369682E0EB3CF807D4
:10147000B9F784E092E09093D6028093D50280E0A1
:1014800092E09093D8028093D70285E08093D902AE
:1014900084E08093DA0289E092E09093D402809312
:1014A000D3028AE090E09093DC028093DB0284EF29
:1014B00091E09093DE028093DD021092E10210929F
:1014C000E0021092CF021092D0021092D10210923C
:1014D000D2021092DF0208955058BB27AA270E941B
:1014E000840A0C94F70B0E94E90B38F00E94F00B71
:1014F00020F039F49F3F19F426F40C94E60B0EF417
:10150000E095E7FB0C94E00BE92F0E94080C58F3E0
:10151000BA17620773078407950720F079F4A6F5D8
:101520000C942A0C0EF4E0950B2EBA2FA02D0B0173
:10153000B90190010C01CA01A0011124FF27591B18
:1015400099F0593F50F4503E68F11A16F040A22F1E
:10155000232F342F4427585FF3CF4695379527958F
:10156000A795F0405395C9F77EF41F16BA0B620B8E
:10157000730B840BBAF09150A1F0FF0FBB1F661FD5
:10158000771F881FC2F70EC0BA0F621F731F841F18
:1015900048F4879577956795B795F7959E3F08F03E
:1015A000B0CF9395880F08F09927EE0F9795879500
:1015B00008950E94BC0B08F481E008950E94F20A8D
:1015C0000C94F70B0E94F00B58F00E94E90B40F0CE
:1015D00029F45F3F29F00C94E00B51110C942B0C73
:1015E0000C94E60B0E94080C68F39923B1F3552381
:1015F00091F3951B550BBB27AA2762177307840726
:1016000038F09F5F5F4F220F331F441FAA1FA9F3BB
:1016100035D00E2E3AF0E0E832D091505040E695A9
:10162000001CCAF72BD0FE2F29D0660F771F881F0A
:10163000BB1F261737074807AB07B0E809F0BB0BFD
:10164000802DBF01FF2793585F4F3AF09E3F510511
:1016500078F00C94E00B0C942B0C5F3FE4F3983E75
:10166000D4F3869577956795B795F7959F5FC9F7FA
:10167000880F911D9695879597F90895E1E0660F7B
:10168000771F881FBB1F621773078407BA0720F0F4
:10169000621B730B840BBA0BEE1F88F7E09508955D
:1016A0000E94100C88F09F5798F0B92F9927B751D6
:1016B000B0F0E1F0660F771F881F991F1AF0BA95F6
:1016C000C9F714C0B13091F00E942A0CB1E008951E
:1016D0000C942A0C672F782F8827B85F39F0B93F10
:1016E000CCF3869577956795B395D9F73EF49095A9
:1016F0008095709561957F4F8F4F9F4F0895E89427
:1017000009C097FB3EF490958095709561957F4F49
:101710008F4F9F4F9923A9F0F92F96E9BB279395F7
:10172000F695879577956795B795F111F8CFFAF407
:10173000BB0F11F460FF1BC06F5F7F4F8F4F9F4F38
:1017400016C0882311F096E911C0772321F09EE896
:10175000872F762F05C0662371F096E8862F70E0FC
:1017600060E02AF09A95660F771F881FDAF7880FD6
:101770009695879597F90895990F0008550FAA0B2C
:10178000E0E8FEEF16161706E807F907C0F0121694
:101790001306E407F50798F0621B730B840B950B97
:1017A00039F40A2661F0232B242B252B21F40895EC
:1017B0000A2609F4A140A6958FEF811D811D089589
:1017C00097F99F6780E870E060E008959FEF80ECF4
:1017D000089500240A941616170618060906089597
:1017E00000240A9412161306140605060895092EFD
:1017F0000394000C11F4882352F0BB0F40F4BF2B6C
:1018000011F460FF04C06F5F7F4F8F4F9F4F0895AB
:1018100057FD9058440F551F59F05F3F71F04795A1
:10182000880F97FB991F61F09F3F79F08795089586
:10183000121613061406551FF2CF4695F1DF08C0A5
:10184000161617061806991FF1CF869571056105C2
:1018500008940895E894BB2766277727CB0197F96A
:1018600008950E94BC0B08F48FEF08950E94490C64
:101870000C94F70B0E94E90B38F00E94F00B20F05B
:10188000952311F00C94E00B0C94E60B11240C94AE
:101890002B0C0E94080C70F3959FC1F3950F50E03C
:1018A000551F629FF001729FBB27F00DB11D639F12
:1018B000AA27F00DB11DAA1F649F6627B00DA11DB8
:1018C000661F829F2227B00DA11D621F739FB00D5E
:1018D000A11D621F839FA00D611D221F749F3327CE
:1018E000A00D611D231F849F600D211D822F762F67
:1018F0006A2F11249F5750409AF0F1F088234AF044
:10190000EE0FFF1FBB1F661F771F881F91505040AF
:10191000A9F79E3F510580F00C94E00B0C942B0C22
:101920005F3FE4F3983ED4F3869577956795B79536
:10193000F795E7959F5FC1F7FE2B880F911D969550
:10194000879597F908950E94BC0B880B990B089511
:10195000A1E21A2EAA1BBB1BFD010DC0AA1FBB1FB3
:10196000EE1FFF1FA217B307E407F50720F0A21B25
:10197000B30BE40BF50B661F771F881F991F1A9492
:1019800069F760957095809590959B01AC01BD01BC
:10199000CF010895EE0FFF1F881F8BBF0790F691B0
:0819A000E02D1994F894FFCF2B
:1019A8001B1C1D1E161718191A3132332B343536E5
:1019B8002D3738392A2E303D2F4300000020CDCC5A
:1019C800CC3D000000001A031E03220300000000A3
:1019D800FB042503530352036E616E00696E6600B3
:1019E8006F7666003D0043616C63756C61646F726D
:0C19F80061004C6973746F2E2E2E0000ED
:00000001FF
