:020000040000FA
:100000000C945D000C9485000C9485000C94850084
:100010000C9485000C9485000C9485000C9485004C
:100020000C9485000C9485000C9485000C9485003C
:100030000C9485000C9485000C9485000C9485002C
:100040000C94F0020C9485000C9485000C948500AF
:100050000C9485000C9485000C9485000C9485000C
:100060000C9485000C9485000000000024002700FB
:100070002A0000000000250028002B0004040404CE
:100080000404040402020202020203030303030342
:10009000010204081020408001020408102001021F
:1000A00004081020000000080002010000030407FB
:1000B00000000000000000002F0411241FBECFEF3D
:1000C000D8E0DEBFCDBF11E0A0E0B1E0EEEEF8E099
:1000D00002C005900D92A032B107D9F721E0A0E24D
:1000E000B1E001C01D92A134B207E1F710E0CDE507
:1000F000D0E004C02197FE010E946F04CC35D107E7
:10010000C9F70E943A030C9475040C94000090E027
:10011000FC01EC55FF4F2491FC01E057FF4F349157
:10012000FC01E458FF4FE491EE23C9F0222339F09B
:10013000233001F1A8F4213019F1223029F1F0E047
:10014000EE0FFF1FEE58FF4FA591B4918FB7F894B3
:10015000EC91611126C030953E233C938FBF0895EA
:100160002730A9F02830C9F0243049F78091800069
:100170008F7D03C0809180008F7780938000DFCFD8
:1001800084B58F7784BDDBCF84B58F7DFBCF809125
:10019000B0008F778093B000D2CF8091B0008F7D78
:1001A000F9CF3E2BDACFCF93DF9390E0FC01E057FD
:1001B000FF4F249184589F4FFC0184918823D1F0F4
:1001C00090E0880F991FFC01E859FF4FA591B49169
:1001D000FC01EE58FF4FC591D49161110EC09FB73D
:1001E000F8948C91E22FE0958E238C932881E22362
:1001F000E8839FBFDF91CF9108958FB7F894EC917A
:10020000E22BEC938FBFF6CF3FB7F8948091250196
:1002100090912601A0912701B091280126B5A89BB5
:1002200005C02F3F19F00196A11DB11D3FBFBA2F88
:10023000A92F982F8827BC01CD01620F711D811D48
:10024000911D42E0660F771F881F991F4A95D1F7CD
:1002500008958F929F92AF92BF92CF92DF92EF92CA
:10026000FF924B015C010E9404016B017C010E9422
:1002700004016C197D098E099F09683E7340810550
:100280009105A8F321E0821A9108A108B10888EE2F
:10029000C80E83E0D81EE11CF11C81149104A10456
:1002A000B10429F7FF90EF90DF90CF90BF90AF900F
:1002B0009F908F900895AF92BF92CF92DF92EF926E
:1002C000FF920F931F93CF93DF936C017B018B0100
:1002D000040F151FEB015E01AE18BF08C017D10750
:1002E00059F06991D601ED91FC910190F081E02DDA
:1002F000C6010995892B79F7C501DF91CF911F912F
:100300000F91FF90EF90DF90CF90BF90AF90089546
:10031000089590E080E00895FC0101900020E9F745
:100320003197AF01481B590BBC0189E291E00C9455
:100330005B01CF93DF93EC0160E08E810E94870028
:1003400061E08E810E94870060E08E810E948700BC
:100350008BE891E00197F1F7DF91CF910895CF926B
:10036000DF92EF92FF920F931F93CF93DF936C0175
:100370007C0187E0E80EF11CD0E0C0E0062F10E021
:10038000B8010C2E02C0759567950A94E2F761706A
:10039000F70181917F010E9487002196C430D10529
:1003A00079F7C601DF91CF911F910F91FF90EF90E8
:1003B000DF90CF900C949901CF92DF92EF92FF9251
:1003C0000F931F93CF93DF93EC01F62E642F8C8154
:1003D0000E9487008D818F3F19F060E00E948700A6
:1003E0000F2D10E08F8584FF25C06E0187E0C80EB9
:1003F000D11CF12CE12CB8010E2C02C0759567952B
:100400000A94E2F76170F60181916F010E94870002
:10041000FFEFEF1AFF0A88E0E816F10461F7CE015A
:10042000DF91CF911F910F91FF90EF90DF90CF90D0
:100430000C949901B80184E0759567958A95E1F768
:10044000CE010E94AF016F2DCE01DF91CF911F91A0
:100450000F91FF90EF90DF90CF900C94AF0140E0B0
:10046000682F89E291E00C94DC01CF93DF93813017
:1004700029F09091380198609093380180933C0165
:1004800010923D0180E480933E0180E180933F0122
:1004900080E58093400161E080912D010E94D300AE
:1004A00080912E018F3F19F061E00E94D30061E03E
:1004B00080912F010E94D300C9E2D1E09E01295210
:1004C00031408091380184FD0BC084E090E021969A
:1004D0002817390744F461E08E810E94D300EECFE3
:1004E00088E090E0F4CF8BE39DE00197F1F760E0C6
:1004F00080912D010E94870060E080912F010E9471
:10050000870080912E018F3F19F060E00E948700E4
:100510008091380184FD39C063E089E291E00E9456
:10052000AF01CBE4D6E4CE010197F1F763E089E2B5
:1005300091E00E94AF012197F1F763E089E291E039
:100540000E94AF0183E592E00197F1F762E089E252
:1005500091E00E94AF018091380180620E942F02D9
:1005600084E0809339018CE00E942F0281E00E9498
:100570002F028BE39FE10197F1F782E080933A012C
:1005800086E0DF91CF910C942F0280620E942F02AF
:100590008BE496E40197F1F78091380180620E9424
:1005A0002F0283E592E00197F1F780913801806294
:1005B0000E942F02D0CF90913C01691710F06FEF8D
:1005C000690FE62FF0E0E75DFE4F9489890F8068A0
:1005D0000C942F0241E00E94DC0181E090E008953C
:1005E0001F920F920FB60F9211242F933F938F9368
:1005F0009F93AF93BF938091210190912201A0918D
:100600002301B09124013091200123E0230F2D37E5
:1006100058F50196A11DB11D209320018093210161
:1006200090932201A0932301B0932401809125018E
:1006300090912601A0912701B09128010196A11D5A
:10064000B11D8093250190932601A0932701B093BB
:100650002801BF91AF919F918F913F912F910F9062
:100660000FBE0F901F90189526E8230F0296A11D2C
:10067000B11DD2CFCF93DF93CDB7DEB7A1970FB621
:10068000F894DEBF0FBECDBF789484B5826084BD80
:1006900084B5816084BD85B5826085BD85B5816086
:1006A00085BD80916E00816080936E001092810004
:1006B00080918100826080938100809181008160BF
:1006C0008093810080918000816080938000809180
:1006D000B10084608093B1008091B000816080930C
:1006E000B00080917A00846080937A0080917A00D3
:1006F000826080937A0080917A00816080937A0092
:1007000080917A00806880937A001092C10060E046
:100710008EE00E94D30084E00E94350281E00E94B6
:100720002F028BE39FE10197F1F7809139018E7FD2
:100730008093390188600E942F0280913901982F9F
:100740009260909339018A600E942F0260E080E0FD
:100750000E94DB028CE091E00E948C0161E082E06B
:100760000E94DB0280E191E00E948C0168EE73E060
:1007700080E090E00E94290180E4782E9AE0892EA2
:10078000912CA12CB12C00E010E070927C008091A3
:100790007A00806480937A0080917A0086FDFCCF95
:1007A000C0907800D090790061E08BE00E94DB027D
:1007B0008AE191E00E948C0161E08BE00E94DB0203
:1007C0000D2C000CEE08FF08F7FE33C041E06DE28F
:1007D00089E291E00E94DC0122273327A9012C192C
:1007E0003D094E095F0919A2CE0181967C01CA011B
:1007F000B901A50194010E944D04605DF701629367
:100800007F01211531054105510589F7E114F104F6
:1008100019F0C7010E948C0168EC70E080E090E064
:100820000E9429010115110509F4AFCF0E940000B3
:10083000ACCFA701960119A2CE0181967C01CA0115
:10084000B901A50194010E944D04605DF701629316
:100850007F01211531054105510589F7D7CFE9E21F
:10086000F1E01382128284E091E09183808385E13C
:1008700084838FEF858384E1868383E1878382E1AC
:10088000808781E1818780E18287138614861586BF
:100890001686178681E00C943502A1E21A2EAA1B57
:1008A000BB1BFD010DC0AA1FBB1FEE1FFF1FA21720
:1008B000B307E407F50720F0A21BB30BE40BF50B1D
:1008C000661F771F881F991F1A9469F760957095A6
:1008D000809590959B01AC01BD01CF010895EE0F6D
:1008E000FF1F0590F491E02D0994F894FFCF0000CC
:1008F0000000EA025B01890188014C434400454A3B
:0E090000454D504C4F3A200020202020000092
:107E0000112484B714BE81FFF0D085E080938100F7
:107E100082E08093C00088E18093C10086E0809377
:107E2000C20080E18093C4008EE0C9D0259A86E02C
:107E300020E33CEF91E0309385002093840096BBD3
:107E4000B09BFECF1D9AA8958150A9F7CC24DD24C4
:107E500088248394B5E0AB2EA1E19A2EF3E0BF2EE7
:107E6000A2D0813461F49FD0082FAFD0023811F036
:107E7000013811F484E001C083E08DD089C08234E0
:107E800011F484E103C0853419F485E0A6D080C0E4
:107E9000853579F488D0E82EFF2485D0082F10E0AE
:107EA000102F00270E291F29000F111F8ED06801E7
:107EB0006FC0863521F484E090D080E0DECF843638
:107EC00009F040C070D06FD0082F6DD080E0C81688
:107ED00080E7D80618F4F601B7BEE895C0E0D1E017
:107EE00062D089930C17E1F7F0E0CF16F0E7DF06D8
:107EF00018F0F601B7BEE89568D007B600FCFDCFD4
:107F0000A601A0E0B1E02C9130E011968C91119780
:107F100090E0982F8827822B932B1296FA010C0160
:107F200087BEE89511244E5F5F4FF1E0A038BF0790
:107F300051F7F601A7BEE89507B600FCFDCF97BE46
:107F4000E89526C08437B1F42ED02DD0F82E2BD052
:107F50003CD0F601EF2C8F010F5F1F4F84911BD097
:107F6000EA94F801C1F70894C11CD11CFA94CF0C13
:107F7000D11C0EC0853739F428D08EE10CD085E9AC
:107F80000AD08FE07ACF813511F488E018D01DD067
:107F900080E101D065CF982F8091C00085FFFCCF94
:107FA0009093C60008958091C00087FFFCCF809118
:107FB000C00084FD01C0A8958091C6000895E0E648
:107FC000F0E098E1908380830895EDDF803219F02E
:107FD00088E0F5DFFFCF84E1DECF1F93182FE3DFCA
:107FE0001150E9F7F2DF1F91089580E0E8DFEE27F6
:047FF000FF270994CA
:027FFE00040479
:00000001FF
