:100000000C942D010C945E010C945E010C945E0125
:100010000C945E010C945E010C945E010C945E01E4
:100020000C945E010C945E010C945E010C945E01D4
:100030000C945E010C945E010C945E010C945E01C4
:100040000C945E010C945E010C945E010C945E01B4
:100050000C945E010C945E010C945E010C946B0494
:100060000C945E010C945E010C945E010C945E0194
:100070000C945E010C945E010C945E010C945E0184
:100080000C945E010C945E010C945E010C945E0174
:100090000C945E010C945E010C945E010C945E0164
:1000A0000C945E010C945E010C945E010C945E0154
:1000B0000C945E010C945E010C945E010C945E0144
:1000C0000C945E010C945E010C945E010C945E0134
:1000D0000C945E010C945E010C945E010C945E0124
:1000E0000C945E010C9403030C94F9020C94F60238
:1000F0000C941F030C9409030C941B030C946004D0
:100100000C9468040C9424030C9411030C942503A0
:100110000C94FF020C94E4020C9400090C94290343
:100120000C94EE020C9417030C94F2020C946404E9
:100130000C940D030C94EA02000021002400270017
:100140002A002D00300033000101000004010701E6
:100150000A0100002200250028002B002E0031009B
:10016000340002010000050108010B01000020001D
:100170002300260029002C002F003200000100007F
:10018000030106010901050505050705080808081A
:10019000020202020A0A080804040404010101011F
:1001A000010101010303030303030303040707071A
:1001B0000C0C0C0C0C0C0C0C0202020206060606BF
:1001C000060606060B0B0B0B0B0B0B0B010210208C
:1001D000200808102040102040800201020108047D
:1001E0000201010204081020408080402010080411
:1001F000020180040201804020100804020108046A
:1002000002010102040810204080010204081020AD
:10021000408000000A0B02090C0D0E0807030401C0
:1002200000000000000000000000000000000000CE
:10023000000000000000000000000000000012119B
:10024000100000000000000000000000000000009E
:100250000000000000000000000911241FBECFEFC5
:10026000D1E2DEBFCDBF00E00CBF12E0A0E0B2E003
:10027000E8EBF3E100E00BBF02C007900D92A0385D
:10028000B107D9F723E0A0E8B2E001C01D92A03386
:10029000B207E1F711E0CDE2D1E000E006C021971E
:1002A0000109802FFE010E94D209CC32D10780E0E3
:1002B0000807A9F70E94B5040C94DA090C94000011
:1002C0002F923F924F925F926F927F928F929F9266
:1002D000AF92BF92CF92DF92EF92FF920F931F9354
:1002E000CF93DF9300D000D000D01F92CDB7DEB700
:1002F0006B017C0160901C03062D10E0C801880F83
:10030000991F880F991FFC01E85AFD4F40815181C8
:100310006281738141505109610971099E012F5F0A
:100320003F4F49014C155D056E057F05C4F4F4018E
:1003300085E29E2F9819961508F462C08FE193E02C
:10034000D4012A2F2819261508F074C0ED91F0E089
:10035000E15DFD4F2081FC012193CF01F2CF8C5A4A
:100360009D4FFC01408151816281738181E090E069
:10037000A0E0B0E0841B950BA60BB70BC816D906FE
:10038000EA06FB06A4F2712CF7FE0CC085E2898315
:10039000F094E094D094C094C11CD11CE11CF11CD9
:1003A00077247394A72CB12C9801215031093A87F6
:1003B00029870A191B09000F111F000F111F085A66
:1003C0001D4FA80CB91C7614E8F4F8015290429025
:1003D000329022908F01C701B601A20191010E94C3
:1003E0006709F50121935F01A22FB0E0A2019101FD
:1003F0000E948609C61AD70AE80AF90A7394E3CF5D
:10040000819397CF80910B03811198CF24E2E82F3D
:10041000F0E049855A85E417F5070CF08FCFE80D19
:10042000F91D9081911103C020838F5FF0CF9A3026
:10043000E0F784CF2A960FB6F894DEBF0FBECDBF8B
:10044000DF91CF911F910F91FF90EF90DF90CF90B0
:10045000BF90AF909F908F907F906F905F904F90E4
:100460003F902F90089596E0899FD0011124AA56BD
:10047000BD4F90967C936E935F9791E091969C937D
:100480009197E0910303F091040390910203992363
:1004900039F0309751F0811108C08091B20219945F
:1004A000309719F05C968C91FACF0895CF92DF9235
:1004B000EF92FF920F931F9396E0899FF001112412
:1004C000EA56FD4F11A2278D30A12130310551F19F
:1004D00078F02230310509F451C02330310509F498
:1004E00052C01F910F91FF90EF90DF90CF90089531
:1004F0006623B9F361E070E00E9433022FB7F894ED
:100500008091920290919302A0919402B0919502F1
:100510002FBF8093EE029093EF02A093F002B0936E
:10052000F102DFCF9FB7F894C0909202D09093026F
:10053000E0909402F09095029FBF0091EE0210911E
:10054000EF022091F0023091F102C01AD10AE20AC2
:10055000F30A009100031091010330E020E00C1534
:100560001D052E053F0550F462E070E01F910F91CC
:10057000FF90EF90DF90CF900C9433026111B1CFD8
:1005800063E070E0F3CF70E060E0F0CF8150823143
:1005900008F05AC0E82FF0E08827EE52FD4F8F4F49
:1005A0000C94D209F202F602E402EA02EE022403FB
:1005B000F902FF02030309030D03110317031B03D1
:1005C00024031F0325032903809180008F778093E4
:1005D00080000895809180008F7DF9CF8091800008
:1005E000877FF5CF84B58F7784BD089584B58F7DDF
:1005F000FBCF8091B0008F778093B00008958091F9
:10060000B0008F7DF9CF809190008F77809390001C
:100610000895809190008F7DF9CF80919000877F21
:10062000F5CF8091A0008F778093A00008958091EE
:10063000A0008F7DF9CF8091A000877FF5CF8091BA
:1006400020018F77809320010895809120018F7D74
:10065000F9CF80912001877FF5CFCF93DF93282FAB
:1006600030E0F901EE5EFD4F8491F901E453FE4F55
:10067000D491F901EA57FE4FC491CC23A1F0811126
:100680000E94C602EC2FF0E0EE0FFF1FE459FE4F70
:10069000A591B491EC91ED2381E090E009F480E024
:1006A000DF91CF91089580E090E0FACF1F93CF9330
:1006B000DF93282F30E0F901EE5EFD4F8491F901C0
:1006C000E453FE4FD491F901EA57FE4FC491CC2375
:1006D000A9F0162F81110E94C602EC2FF0E0EE0F58
:1006E000FF1FEE5AFE4FA591B4918FB7F894EC918D
:1006F000111108C0D095DE23DC938FBFDF91CF911D
:100700001F910895DE2BF8CFCF93DF93C82FD0E051
:1007100080911D03D81758F4ED2FF0E0EB5FFC4FEC
:100720006091080387850E945603DF5FF1CFEC2FAD
:10073000F0E0EB5FFC4F609106038781DF91CF9182
:100740000C945603CF93DF93C82FD0E080911C0305
:10075000D81758F4ED2FF0E0EB5FFC4F60910603E3
:1007600087810E945603DF5FF1CFEC2FF0E0EB5F53
:10077000FC4F609108038785DF91CF910C9456035D
:100780001F93CF93DF93C82FD0E0CB5FDC4F6091F6
:1007900005038F810E94560310E06A9680911D0325
:1007A0001817A8F4E12FF0E0888190E0012E02C034
:1007B000959587950A94E2F780FF07C0EB5FFC4FA1
:1007C0006091070387850E9456031F5FE7CFDF9183
:1007D000CF911F9108950F931F93CF93C82FE82FA8
:1007E000F0E0EB5FFC4F6091070387850E945603A2
:1007F00001E010E002C0000F111FCA95E2F7C0E04F
:1008000080911C03C81788F4EC2FF0E0EB5FFC4FDD
:10081000828D90E080239123892B29F0609105033C
:1008200087810E945603CF5FEBCFCF911F910F912D
:100830000895CF93DF9390E0FC01E453FE4F2491A1
:100840008A579E4FFC0184918823C9F090E0880F5D
:10085000991FFC01E85CFE4FA591B491FC01EE5A92
:10086000FE4FC591D49161110DC09FB7F8948C9142
:10087000209582238C938881282328839FBFDF9132
:10088000CF910895623051F49FB7F8943C91822F34
:10089000809583238C93E8812E2BEFCF8FB7F8942C
:1008A000EC912E2B2C938FBFEACF8230910538F03C
:1008B000880F991F880F991F05970197F1F70895E1
:1008C000862F642F0C941904862F642F0C945603E2
:1008D000862F0C942D031F920F920FB60F921124A6
:1008E0002F933F938F939F93AF93BF9380919202E7
:1008F00090919302A0919402B0919502309191024F
:1009000023E0230F2D3758F50196A11DB11D20932B
:1009100091028093920290939302A0939402B093D9
:10092000950280918D0290918E02A0918F02B091DC
:1009300090020196A11DB11D80938D0290938E02AD
:10094000A0938F02B0939002BF91AF919F918F912E
:100950003F912F910F900FBE0F901F90189526E892
:10096000230F0296A11DB11DD2CFCF93DF93CDB738
:10097000DEB72C970FB6F894DEBF0FBECDBF7894CC
:1009800084B5826084BD84B5816084BD85B5826094
:1009900085BD85B5816085BD80916E008160809345
:1009A0006E001092810080918100826080938100AE
:1009B00080918100816080938100809180008160BE
:1009C000809380008091B10084608093B100809119
:1009D000B00081608093B00080919100826080932C
:1009E00091008091910081608093910080919000AE
:1009F0008160809390008091A10082608093A1002B
:100A00008091A10081608093A1008091A00081600D
:100A10008093A000809121018260809321018091C8
:100A20002101816080932101809120018160809368
:100A3000200180917A00846080937A0080917A000E
:100A4000826080937A0080917A00816080937A003E
:100A500080917A00806880937A001092C100809122
:100A6000190290911A02A0911B02B0911C02898771
:100A70009A87AB87BC8788E0EDE1F2E0DE01119652
:100A800001900D928A95E1F71092090310920A03E2
:100A900010920B0384E080931C0388E080931D0375
:100AA00081E0809305031092070310920603809360
:100AB0000803FE013196A4E1B3E0CE01099621912D
:100AC0002D938E179F07D9F7898580930C038A850C
:100AD00080930D038B8580930E038C8580930F0389
:100AE00010E080911C03181798F4812F90E09C016E
:100AF0002B5F3C4F790161E0F90187810E94190465
:100B000060910603F70187810E9456031F5FE9CFBA
:100B100010E080911D03181750F090911C03EFE135
:100B2000F3E080E09817B1F011928F5FFBCF812F37
:100B300090E09C012B5F3C4F790161E0F9018785D2
:100B40000E94190460910803F70187850E945603EB
:100B50001F5FDFCF80E00E94A20380E00E94840339
:100B600088E097E090932C0380932B0310922E0340
:100B700010922D0310922F03412C512C32014394DB
:100B8000E0E0AE2EE0E0BE2EF1E0F09302038FB77E
:100B9000F894409192025091930260919402709166
:100BA00095028FBF8091F2029091F302A091F4021E
:100BB000B091F502481B590B6A0B7B0B8091FE022A
:100BC0009091FF02B0E0A0E084179507A607B70751
:100BD00008F084C110E08091FC02181760F4E091E5
:100BE000F802F091F902E10FF11D62E080810E94AC
:100BF00019041F5FF0CF312C8091FD02381608F0E8
:100C000061C0E32CF12CE091FA02F091FB02EE0DB1
:100C1000FF1D61E080810E941904E091FA02F091C9
:100C2000FB02EE0DFF1D60E080810E945603D301A0
:100C3000C201032C04C0880F991FAA1FBB1F0A946E
:100C4000D2F74C016C01C094D094212C8091FC020D
:100C5000281608F5022D10E0E091F802F091F90253
:100C6000E00FF11F80810E942D030C5F1F4F000FCA
:100C7000111FF801EA56FD4F892B41F480819181C3
:100C800088299929918380832394E0CF8081918161
:100C90008C219D21F7CFE091FA02F091FB02EE0D3D
:100CA000FF1D61E080810E9456038091FA029091BD
:100CB000FB02E80EF91E60E0F70180810E94190432
:100CC00033949ACF06E912E07801F701878D90A15D
:100CD000892B31F4148E2FEF3FEF368F258F11A221
:100CE00036E0E30EF11C82ED92E08E159F0569F768
:100CF000D12C8091FC02D81608F053C0C12C8D2C49
:100D0000912C880C991CF401E256FD4F4F01209163
:100D1000FD02C21608F043C0F401608171810C2C01
:100D200002C0769567950A94E2F7D29E900111244D
:100D30002C0D311DE6E9F2E080E0458D568D24173B
:100D4000350709F45BC28F5F36968A30B1F760FFD2
:100D500024C0E6E9F2E090E080E0448D411118C043
:100D6000E091F602F091F702E20FF31F408156E0A6
:100D7000589FF001599FF00D1124EA56FD4F448F02
:100D8000368F258F10A2178E61E00E94560205C093
:100D9000019636968A30910501F7C394B8CFD39463
:100DA000A8CF80E0F80191A19111892F0A5F1F4F10
:100DB000E016F106B9F79FB7F8944091920250916E
:100DC000930260919402709195029FBF4093F2024A
:100DD0005093F3026093F4027093F502882309F4B0
:100DE0007DC08091B702882309F478C08091B50254
:100DF0009091B602019709F071C06091B202611141
:100E000070C080910A038111BFC13FB7F8948091EF
:100E10008D0290918E02A0918F02B091900226B522
:100E2000A89B05C02F3F19F00196A11DB11D3FBF22
:100E3000BA2FA92F982F8827820F911DA11DB11DB0
:100E400042E0880F991FAA1FBB1F4A95D1F7209136
:100E50002F0340912703509128036091290370913B
:100E60002A036C017D01C41AD50AE60AF70A4091EB
:100E70002D0350912E03211104C040912B0350915A
:100E80002C03052E000C660B770BC416D506E60660
:100E9000F7060CF455C18093270390932803A09381
:100EA0002903B0932A0380911E03909109039111A5
:100EB0004EC1222309F438C110922F0380911E03E2
:100EC0008F5F80931E0390911D03891710F010927D
:100ED0001E0380911E030E94EB0332C11092020395
:100EE00090CF80ED860F8A3008F042C0C62E660F84
:100EF000DD08F0E3CF1AD1080D2C000CEE08FF0836
:100F000080918C0281111BC020918802309189024E
:100F100040918A0250918B02AAE0B0E00E948609BB
:100F20006C0D7D1D8E1D9F1D60938802709389023C
:100F300080938A0290938B020E94600162CF20917D
:100F40008402309185024091860250918702AAE086
:100F5000B0E00E9486096C0D7D1D8E1D9F1D609363
:100F60008402709385028093860290938702E4CF77
:100F7000862F8D7F8D3221F086ED860F823030F402
:100F80006093180221E020938C023BCF6D3309F06F
:100F9000A7C0809118028B3209F44CC02CF58A321C
:100FA00009F47AC0C0908002D0908102E090820261
:100FB000F0908302C701B6010E946001C0928802CE
:100FC000D0928902E0928A02F0928B0210928402FF
:100FD00010928502109286021092870230E23093BE
:100FE000180210928C020DCF8D3209F440C08F325E
:100FF000C9F6209184023091850240918602509179
:101000008702211531054105510509F460C0609141
:1010100088027091890280918A0290918B020E94CD
:10102000670920938002309381024093820250939B
:101030008302B8CF8091880290918902A0918A02A0
:10104000B0918B024091840250918502609186029A
:1010500070918702840F951FA61FB71F809380028F
:1010600090938102A0938202B09383029BCF8091E0
:10107000880290918902A0918A02B0918B024091DE
:101080008402509185026091860270918702841BD0
:10109000950BA60BB70BE2CF209188023091890205
:1010A00040918A0250918B02609184027091850276
:1010B00080918602909187020E94C209609380020B
:1010C0007093810280938202909383026BCF10927F
:1010D000800210928102109282021092830262CFEB
:1010E000633409F08ECE1092880210928902109219
:1010F0008A0210928B021092840210928502109242
:101100008602109287021092800210928102109241
:1011100082021092830250E25093180210928C02C5
:1011200060E070E0CB0108CF0E94A20380912D0304
:1011300090912E03892B09F4C1CE81E080932F0377
:10114000A114B10409F420CD0E9400001DCD22237A
:1011500091F010922F0380911E038F5F80931E03E6
:1011600090911C03891710F010921E0380911E03AA
:101170000E94C003E5CF0E94840380912D039091CB
:101180002E03892B41F3D9CF8091090310E08111FF
:101190001AC080911D03181798F6812F0E94EB0347
:1011A00080912B0390912C030E945504812F0E9463
:1011B000A20380912D0390912E03009711F00E94BD
:1011C00055041F5FE6CF80911C03181708F0B8CFB5
:1011D000812F0E94C00380912B0390912C030E94C9
:1011E0005504812F0E94840380912D0390912E033A
:1011F000009711F00E9455041F5FE5CF6170C5CDC7
:1012000080ED97E090932C0380932B0310922E0394
:1012100010922D0310922F0310921C0310921E03A4
:1012200010922703109228031092290310922A0388
:101230001092090310920A031092980210929C02D5
:1012400010929B0210929D0289E292E09093970285
:1012500080939602E2EBF2E01082148213821582F0
:10126000369682E0EE3EF807B9F784E092E090937C
:10127000F9028093F80280E092E09093FB02809361
:10128000FA0284E08093FC028093FD0288E092E001
:101290009093F7028093F6028AE090E09093FF0229
:1012A0008093FE0284EF91E090930103809300030A
:1012B00010920403109203031092F2021092F302B0
:1012C0001092F4021092F502109202030895052E76
:1012D00097FB1EF400940E947E0957FD07D00E94E0
:1012E000910907FC03D04EF40C947E09509540956B
:1012F000309521953F4F4F4F5F4F089590958095C2
:10130000709561957F4F8F4F9F4F08950E94B3094D
:10131000A59F900DB49F900DA49F800D911D112449
:101320000895A1E21A2EAA1BBB1BFD010DC0AA1F26
:10133000BB1FEE1FFF1FA217B307E407F50720F03E
:10134000A21BB30BE40BF50B661F771F881F991FB9
:101350001A9469F760957095809590959B01AC0102
:10136000BD01CF010895A29FB001B39FC001A39F0B
:10137000700D811D1124911DB29F700D811D1124CE
:10138000911D0895DB018F939F930E948609BF9161
:10139000AF91A29F800D911DA39F900DB29F900DC4
:1013A00011240895EE0FFF1F881F8BBF0790F69141
:0813B000E02D1994F894FFCF21
:1013B80011100F0E151413123132332B3435362D0C
:1013C8003738392A2F303D43200A0B0C0D0203040D
:1013D8000506070809000000006004640468043F6B
:1013E800065B4F666D7D077F6F777C395E79713D4F
:1013F80076300E763800543F7367506D783E3E0065
:10140800766E5B0040806308010000000A0000005F
:1014180064000000E803000010270000A086010017
:1014280040420F008096980000E1F50500CA9A3BFB
:00000001FF
